{
  "_format": "hh-sol-artifact-1",
  "contractName": "EphereFootballerERC721",
  "sourceName": "contracts/EphereFootballerERC721.sol",
  "abi": [
    {
      "inputs": [
        {
          "internalType": "uint256",
          "name": "maxSupply",
          "type": "uint256"
        }
      ],
      "stateMutability": "nonpayable",
      "type": "constructor"
    },
    {
      "anonymous": false,
      "inputs": [
        {
          "indexed": true,
          "internalType": "address",
          "name": "owner",
          "type": "address"
        },
        {
          "indexed": true,
          "internalType": "address",
          "name": "approved",
          "type": "address"
        },
        {
          "indexed": true,
          "internalType": "uint256",
          "name": "tokenId",
          "type": "uint256"
        }
      ],
      "name": "Approval",
      "type": "event"
    },
    {
      "anonymous": false,
      "inputs": [
        {
          "indexed": true,
          "internalType": "address",
          "name": "owner",
          "type": "address"
        },
        {
          "indexed": true,
          "internalType": "address",
          "name": "operator",
          "type": "address"
        },
        {
          "indexed": false,
          "internalType": "bool",
          "name": "approved",
          "type": "bool"
        }
      ],
      "name": "ApprovalForAll",
      "type": "event"
    },
    {
      "anonymous": false,
      "inputs": [
        {
          "indexed": false,
          "internalType": "address",
          "name": "account",
          "type": "address"
        }
      ],
      "name": "Paused",
      "type": "event"
    },
    {
      "anonymous": false,
      "inputs": [
        {
          "indexed": true,
          "internalType": "bytes32",
          "name": "role",
          "type": "bytes32"
        },
        {
          "indexed": true,
          "internalType": "bytes32",
          "name": "previousAdminRole",
          "type": "bytes32"
        },
        {
          "indexed": true,
          "internalType": "bytes32",
          "name": "newAdminRole",
          "type": "bytes32"
        }
      ],
      "name": "RoleAdminChanged",
      "type": "event"
    },
    {
      "anonymous": false,
      "inputs": [
        {
          "indexed": true,
          "internalType": "bytes32",
          "name": "role",
          "type": "bytes32"
        },
        {
          "indexed": true,
          "internalType": "address",
          "name": "account",
          "type": "address"
        },
        {
          "indexed": true,
          "internalType": "address",
          "name": "sender",
          "type": "address"
        }
      ],
      "name": "RoleGranted",
      "type": "event"
    },
    {
      "anonymous": false,
      "inputs": [
        {
          "indexed": true,
          "internalType": "bytes32",
          "name": "role",
          "type": "bytes32"
        },
        {
          "indexed": true,
          "internalType": "address",
          "name": "account",
          "type": "address"
        },
        {
          "indexed": true,
          "internalType": "address",
          "name": "sender",
          "type": "address"
        }
      ],
      "name": "RoleRevoked",
      "type": "event"
    },
    {
      "anonymous": false,
      "inputs": [
        {
          "indexed": true,
          "internalType": "address",
          "name": "from",
          "type": "address"
        },
        {
          "indexed": true,
          "internalType": "address",
          "name": "to",
          "type": "address"
        },
        {
          "indexed": true,
          "internalType": "uint256",
          "name": "tokenId",
          "type": "uint256"
        }
      ],
      "name": "Transfer",
      "type": "event"
    },
    {
      "anonymous": false,
      "inputs": [
        {
          "indexed": false,
          "internalType": "address",
          "name": "account",
          "type": "address"
        }
      ],
      "name": "Unpaused",
      "type": "event"
    },
    {
      "inputs": [],
      "name": "DEFAULT_ADMIN_ROLE",
      "outputs": [
        {
          "internalType": "bytes32",
          "name": "",
          "type": "bytes32"
        }
      ],
      "stateMutability": "view",
      "type": "function"
    },
    {
      "inputs": [],
      "name": "MINTER_ROLE",
      "outputs": [
        {
          "internalType": "bytes32",
          "name": "",
          "type": "bytes32"
        }
      ],
      "stateMutability": "view",
      "type": "function"
    },
    {
      "inputs": [],
      "name": "PAUSER_ROLE",
      "outputs": [
        {
          "internalType": "bytes32",
          "name": "",
          "type": "bytes32"
        }
      ],
      "stateMutability": "view",
      "type": "function"
    },
    {
      "inputs": [],
      "name": "_maxSupply",
      "outputs": [
        {
          "internalType": "uint256",
          "name": "",
          "type": "uint256"
        }
      ],
      "stateMutability": "view",
      "type": "function"
    },
    {
      "inputs": [
        {
          "internalType": "address",
          "name": "to",
          "type": "address"
        },
        {
          "internalType": "uint256",
          "name": "tokenId",
          "type": "uint256"
        }
      ],
      "name": "approve",
      "outputs": [],
      "stateMutability": "nonpayable",
      "type": "function"
    },
    {
      "inputs": [
        {
          "internalType": "address",
          "name": "owner",
          "type": "address"
        }
      ],
      "name": "balanceOf",
      "outputs": [
        {
          "internalType": "uint256",
          "name": "",
          "type": "uint256"
        }
      ],
      "stateMutability": "view",
      "type": "function"
    },
    {
      "inputs": [
        {
          "internalType": "uint256",
          "name": "tokenId",
          "type": "uint256"
        }
      ],
      "name": "burn",
      "outputs": [],
      "stateMutability": "nonpayable",
      "type": "function"
    },
    {
      "inputs": [
        {
          "internalType": "address",
          "name": "user",
          "type": "address"
        }
      ],
      "name": "checkMinter",
      "outputs": [
        {
          "internalType": "bool",
          "name": "",
          "type": "bool"
        }
      ],
      "stateMutability": "view",
      "type": "function"
    },
    {
      "inputs": [
        {
          "internalType": "uint256",
          "name": "tokenId",
          "type": "uint256"
        }
      ],
      "name": "getApproved",
      "outputs": [
        {
          "internalType": "address",
          "name": "",
          "type": "address"
        }
      ],
      "stateMutability": "view",
      "type": "function"
    },
    {
      "inputs": [
        {
          "internalType": "uint256",
          "name": "_id",
          "type": "uint256"
        }
      ],
      "name": "getCid",
      "outputs": [
        {
          "internalType": "string",
          "name": "",
          "type": "string"
        }
      ],
      "stateMutability": "view",
      "type": "function"
    },
    {
      "inputs": [],
      "name": "getCounter",
      "outputs": [
        {
          "internalType": "uint256",
          "name": "",
          "type": "uint256"
        }
      ],
      "stateMutability": "view",
      "type": "function"
    },
    {
      "inputs": [
        {
          "internalType": "bytes32",
          "name": "role",
          "type": "bytes32"
        }
      ],
      "name": "getRoleAdmin",
      "outputs": [
        {
          "internalType": "bytes32",
          "name": "",
          "type": "bytes32"
        }
      ],
      "stateMutability": "view",
      "type": "function"
    },
    {
      "inputs": [
        {
          "internalType": "bytes32",
          "name": "role",
          "type": "bytes32"
        },
        {
          "internalType": "uint256",
          "name": "index",
          "type": "uint256"
        }
      ],
      "name": "getRoleMember",
      "outputs": [
        {
          "internalType": "address",
          "name": "",
          "type": "address"
        }
      ],
      "stateMutability": "view",
      "type": "function"
    },
    {
      "inputs": [
        {
          "internalType": "bytes32",
          "name": "role",
          "type": "bytes32"
        }
      ],
      "name": "getRoleMemberCount",
      "outputs": [
        {
          "internalType": "uint256",
          "name": "",
          "type": "uint256"
        }
      ],
      "stateMutability": "view",
      "type": "function"
    },
    {
      "inputs": [
        {
          "internalType": "address",
          "name": "owner",
          "type": "address"
        }
      ],
      "name": "getTokenIdsFromAddress",
      "outputs": [
        {
          "internalType": "uint256[]",
          "name": "",
          "type": "uint256[]"
        }
      ],
      "stateMutability": "view",
      "type": "function"
    },
    {
      "inputs": [
        {
          "internalType": "bytes32",
          "name": "role",
          "type": "bytes32"
        },
        {
          "internalType": "address",
          "name": "account",
          "type": "address"
        }
      ],
      "name": "grantRole",
      "outputs": [],
      "stateMutability": "nonpayable",
      "type": "function"
    },
    {
      "inputs": [
        {
          "internalType": "bytes32",
          "name": "role",
          "type": "bytes32"
        },
        {
          "internalType": "address",
          "name": "account",
          "type": "address"
        }
      ],
      "name": "hasRole",
      "outputs": [
        {
          "internalType": "bool",
          "name": "",
          "type": "bool"
        }
      ],
      "stateMutability": "view",
      "type": "function"
    },
    {
      "inputs": [
        {
          "internalType": "address",
          "name": "owner",
          "type": "address"
        },
        {
          "internalType": "address",
          "name": "operator",
          "type": "address"
        }
      ],
      "name": "isApprovedForAll",
      "outputs": [
        {
          "internalType": "bool",
          "name": "",
          "type": "bool"
        }
      ],
      "stateMutability": "view",
      "type": "function"
    },
    {
      "inputs": [
        {
          "internalType": "string",
          "name": "cid",
          "type": "string"
        },
        {
          "internalType": "address",
          "name": "to",
          "type": "address"
        }
      ],
      "name": "mint",
      "outputs": [],
      "stateMutability": "nonpayable",
      "type": "function"
    },
    {
      "inputs": [],
      "name": "name",
      "outputs": [
        {
          "internalType": "string",
          "name": "",
          "type": "string"
        }
      ],
      "stateMutability": "view",
      "type": "function"
    },
    {
      "inputs": [
        {
          "internalType": "uint256",
          "name": "tokenId",
          "type": "uint256"
        }
      ],
      "name": "ownerOf",
      "outputs": [
        {
          "internalType": "address",
          "name": "",
          "type": "address"
        }
      ],
      "stateMutability": "view",
      "type": "function"
    },
    {
      "inputs": [],
      "name": "pause",
      "outputs": [],
      "stateMutability": "nonpayable",
      "type": "function"
    },
    {
      "inputs": [],
      "name": "paused",
      "outputs": [
        {
          "internalType": "bool",
          "name": "",
          "type": "bool"
        }
      ],
      "stateMutability": "view",
      "type": "function"
    },
    {
      "inputs": [
        {
          "internalType": "bytes32",
          "name": "role",
          "type": "bytes32"
        },
        {
          "internalType": "address",
          "name": "account",
          "type": "address"
        }
      ],
      "name": "renounceRole",
      "outputs": [],
      "stateMutability": "nonpayable",
      "type": "function"
    },
    {
      "inputs": [
        {
          "internalType": "bytes32",
          "name": "role",
          "type": "bytes32"
        },
        {
          "internalType": "address",
          "name": "account",
          "type": "address"
        }
      ],
      "name": "revokeRole",
      "outputs": [],
      "stateMutability": "nonpayable",
      "type": "function"
    },
    {
      "inputs": [
        {
          "internalType": "address",
          "name": "from",
          "type": "address"
        },
        {
          "internalType": "address",
          "name": "to",
          "type": "address"
        },
        {
          "internalType": "uint256",
          "name": "tokenId",
          "type": "uint256"
        }
      ],
      "name": "safeTransferFrom",
      "outputs": [],
      "stateMutability": "nonpayable",
      "type": "function"
    },
    {
      "inputs": [
        {
          "internalType": "address",
          "name": "from",
          "type": "address"
        },
        {
          "internalType": "address",
          "name": "to",
          "type": "address"
        },
        {
          "internalType": "uint256",
          "name": "tokenId",
          "type": "uint256"
        },
        {
          "internalType": "bytes",
          "name": "_data",
          "type": "bytes"
        }
      ],
      "name": "safeTransferFrom",
      "outputs": [],
      "stateMutability": "nonpayable",
      "type": "function"
    },
    {
      "inputs": [
        {
          "internalType": "address",
          "name": "operator",
          "type": "address"
        },
        {
          "internalType": "bool",
          "name": "approved",
          "type": "bool"
        }
      ],
      "name": "setApprovalForAll",
      "outputs": [],
      "stateMutability": "nonpayable",
      "type": "function"
    },
    {
      "inputs": [
        {
          "internalType": "address",
          "name": "user",
          "type": "address"
        }
      ],
      "name": "setMinter",
      "outputs": [],
      "stateMutability": "nonpayable",
      "type": "function"
    },
    {
      "inputs": [
        {
          "internalType": "bytes4",
          "name": "interfaceId",
          "type": "bytes4"
        }
      ],
      "name": "supportsInterface",
      "outputs": [
        {
          "internalType": "bool",
          "name": "",
          "type": "bool"
        }
      ],
      "stateMutability": "view",
      "type": "function"
    },
    {
      "inputs": [],
      "name": "symbol",
      "outputs": [
        {
          "internalType": "string",
          "name": "",
          "type": "string"
        }
      ],
      "stateMutability": "view",
      "type": "function"
    },
    {
      "inputs": [
        {
          "internalType": "uint256",
          "name": "index",
          "type": "uint256"
        }
      ],
      "name": "tokenByIndex",
      "outputs": [
        {
          "internalType": "uint256",
          "name": "",
          "type": "uint256"
        }
      ],
      "stateMutability": "view",
      "type": "function"
    },
    {
      "inputs": [
        {
          "internalType": "address",
          "name": "owner",
          "type": "address"
        },
        {
          "internalType": "uint256",
          "name": "index",
          "type": "uint256"
        }
      ],
      "name": "tokenOfOwnerByIndex",
      "outputs": [
        {
          "internalType": "uint256",
          "name": "",
          "type": "uint256"
        }
      ],
      "stateMutability": "view",
      "type": "function"
    },
    {
      "inputs": [
        {
          "internalType": "uint256",
          "name": "tokenId",
          "type": "uint256"
        }
      ],
      "name": "tokenURI",
      "outputs": [
        {
          "internalType": "string",
          "name": "",
          "type": "string"
        }
      ],
      "stateMutability": "view",
      "type": "function"
    },
    {
      "inputs": [],
      "name": "totalSupply",
      "outputs": [
        {
          "internalType": "uint256",
          "name": "",
          "type": "uint256"
        }
      ],
      "stateMutability": "view",
      "type": "function"
    },
    {
      "inputs": [
        {
          "internalType": "address",
          "name": "from",
          "type": "address"
        },
        {
          "internalType": "address",
          "name": "to",
          "type": "address"
        },
        {
          "internalType": "uint256",
          "name": "tokenId",
          "type": "uint256"
        }
      ],
      "name": "transferFrom",
      "outputs": [],
      "stateMutability": "nonpayable",
      "type": "function"
    },
    {
      "inputs": [],
      "name": "unpause",
      "outputs": [],
      "stateMutability": "nonpayable",
      "type": "function"
    }
  ],
  "bytecode": "0x60a06040523480156200001157600080fd5b506040516200540b3803806200540b833981810160405281019062000037919062000504565b6040518060400160405280601681526020017f45706865726520466f6f7462616c6c20506c61796572000000000000000000008152506040518060400160405280600381526020017f45465000000000000000000000000000000000000000000000000000000000008152508160029080519060200190620000bb9291906200043d565b508060039080519060200190620000d49291906200043d565b5050506000600c60006101000a81548160ff02191690831515021790555080608081815250506200011e6000801b62000112620001a760201b60201c565b620001af60201b60201c565b6200015f7f9f2df0fed2c77648de5860a4cc508cd0818c85b8b8a1ab4ceeef8d981c8956a662000153620001a760201b60201c565b620001af60201b60201c565b620001a07f65d7a28e3265b37a6474929f336521b332c1681b933f6cb9f3376673440d862a62000194620001a760201b60201c565b620001af60201b60201c565b50620005b9565b600033905090565b620001c18282620001c560201b60201c565b5050565b620001dc82826200020d60201b620016381760201c565b620002088160016000858152602001908152602001600020620002fe60201b620017181790919060201c565b505050565b6200021f82826200033660201b60201c565b620002fa57600160008084815260200190815260200160002060000160008373ffffffffffffffffffffffffffffffffffffffff1673ffffffffffffffffffffffffffffffffffffffff16815260200190815260200160002060006101000a81548160ff0219169083151502179055506200029f620001a760201b60201c565b73ffffffffffffffffffffffffffffffffffffffff168173ffffffffffffffffffffffffffffffffffffffff16837f2f8788117e7eff1d82e926ec794901d17c78024a50270940304540a733656f0d60405160405180910390a45b5050565b60006200032e836000018373ffffffffffffffffffffffffffffffffffffffff1660001b620003a060201b60201c565b905092915050565b600080600084815260200190815260200160002060000160008373ffffffffffffffffffffffffffffffffffffffff1673ffffffffffffffffffffffffffffffffffffffff16815260200190815260200160002060009054906101000a900460ff16905092915050565b6000620003b483836200041a60201b60201c565b6200040f57826000018290806001815401808255809150506001900390600052602060002001600090919091909150558260000180549050836001016000848152602001908152602001600020819055506001905062000414565b600090505b92915050565b600080836001016000848152602001908152602001600020541415905092915050565b8280546200044b906200053a565b90600052602060002090601f0160209004810192826200046f5760008555620004bb565b82601f106200048a57805160ff1916838001178555620004bb565b82800160010185558215620004bb579182015b82811115620004ba5782518255916020019190600101906200049d565b5b509050620004ca9190620004ce565b5090565b5b80821115620004e9576000816000905550600101620004cf565b5090565b600081519050620004fe816200059f565b92915050565b6000602082840312156200051757600080fd5b60006200052784828501620004ed565b91505092915050565b6000819050919050565b600060028204905060018216806200055357607f821691505b602082108114156200056a576200056962000570565b5b50919050565b7f4e487b7100000000000000000000000000000000000000000000000000000000600052602260045260246000fd5b620005aa8162000530565b8114620005b657600080fd5b50565b608051614e2f620005dc60003960008181610a120152610aca0152614e2f6000f3fe608060405234801561001057600080fd5b50600436106102275760003560e01c80635d81902f11610130578063a22cb465116100b8578063d53913931161007c578063d5391393146106ae578063d547741f146106cc578063e63ab1e9146106e8578063e985e9c514610706578063fca3b5aa1461073657610227565b8063a22cb465146105e6578063b789bb1a14610602578063b88d4fde14610632578063c87b56dd1461064e578063ca15c8731461067e57610227565b80638ada066e116100ff5780638ada066e1461052c5780639010d07c1461054a57806391d148541461057a57806395d89b41146105aa578063a217fddf146105c857610227565b80635d81902f146104925780636352211e146104c257806370a08231146104f25780638456cb591461052257610227565b80632f2ff15d116101b35780633f4ba83a116101825780633f4ba83a1461040257806342842e0e1461040c57806342966c68146104285780634f6ccce7146104445780635c975abb1461047457610227565b80632f2ff15d1461036a5780632f745c591461038657806336568abe146103b65780633beaa6ab146103d257610227565b806318160ddd116101fa57806318160ddd146102c65780631c351a9d146102e457806322f4596f1461030057806323b872dd1461031e578063248a9ca31461033a57610227565b806301ffc9a71461022c57806306fdde031461025c578063081812fc1461027a578063095ea7b3146102aa575b600080fd5b610246600480360381019061024191906137b3565b610752565b60405161025391906145aa565b60405180910390f35b610264610764565b60405161027191906145e0565b60405180910390f35b610294600480360381019061028f9190613859565b6107f6565b6040516102a19190614521565b60405180910390f35b6102c460048036038101906102bf91906136d6565b61087b565b005b6102ce610993565b6040516102db9190614962565b60405180910390f35b6102fe60048036038101906102f99190613805565b6109a0565b005b610308610ac8565b6040516103159190614962565b60405180910390f35b610338600480360381019061033391906135d0565b610aec565b005b610354600480360381019061034f9190613712565b610b4c565b60405161036191906145c5565b60405180910390f35b610384600480360381019061037f919061373b565b610b6b565b005b6103a0600480360381019061039b91906136d6565b610b94565b6040516103ad9190614962565b60405180910390f35b6103d060048036038101906103cb919061373b565b610c39565b005b6103ec60048036038101906103e79190613859565b610cbc565b6040516103f991906145e0565b60405180910390f35b61040a610d61565b005b610426600480360381019061042191906135d0565b610ddb565b005b610442600480360381019061043d9190613859565b610dfb565b005b61045e60048036038101906104599190613859565b610e57565b60405161046b9190614962565b60405180910390f35b61047c610eee565b60405161048991906145aa565b60405180910390f35b6104ac60048036038101906104a7919061356b565b610f05565b6040516104b99190614588565b60405180910390f35b6104dc60048036038101906104d79190613859565b611051565b6040516104e99190614521565b60405180910390f35b61050c6004803603810190610507919061356b565b611103565b6040516105199190614962565b60405180910390f35b61052a6111bb565b005b610534611235565b6040516105419190614962565b60405180910390f35b610564600480360381019061055f9190613777565b61124b565b6040516105719190614521565b60405180910390f35b610594600480360381019061058f919061373b565b61127a565b6040516105a191906145aa565b60405180910390f35b6105b26112e4565b6040516105bf91906145e0565b60405180910390f35b6105d0611376565b6040516105dd91906145c5565b60405180910390f35b61060060048036038101906105fb919061369a565b61137d565b005b61061c6004803603810190610617919061356b565b611393565b60405161062991906145aa565b60405180910390f35b61064c6004803603810190610647919061361f565b6113c6565b005b61066860048036038101906106639190613859565b611428565b60405161067591906145e0565b60405180910390f35b61069860048036038101906106939190613712565b6114e2565b6040516106a59190614962565b60405180910390f35b6106b6611506565b6040516106c391906145c5565b60405180910390f35b6106e660048036038101906106e1919061373b565b61152a565b005b6106f0611553565b6040516106fd91906145c5565b60405180910390f35b610720600480360381019061071b9190613594565b611577565b60405161072d91906145aa565b60405180910390f35b610750600480360381019061074b919061356b565b61160b565b005b600061075d82611748565b9050919050565b60606002805461077390614c6d565b80601f016020809104026020016040519081016040528092919081815260200182805461079f90614c6d565b80156107ec5780601f106107c1576101008083540402835291602001916107ec565b820191906000526020600020905b8154815290600101906020018083116107cf57829003601f168201915b5050505050905090565b6000610801826117c2565b610840576040517f08c379a000000000000000000000000000000000000000000000000000000000815260040161083790614862565b60405180910390fd5b6006600083815260200190815260200160002060009054906101000a900473ffffffffffffffffffffffffffffffffffffffff169050919050565b600061088682611051565b90508073ffffffffffffffffffffffffffffffffffffffff168373ffffffffffffffffffffffffffffffffffffffff1614156108f7576040517f08c379a00000000000000000000000000000000000000000000000000000000081526004016108ee906148c2565b60405180910390fd5b8073ffffffffffffffffffffffffffffffffffffffff1661091661182e565b73ffffffffffffffffffffffffffffffffffffffff16148061094557506109448161093f61182e565b611577565b5b610984576040517f08c379a000000000000000000000000000000000000000000000000000000000815260040161097b906147a2565b60405180910390fd5b61098e8383611836565b505050565b6000600a80549050905090565b6109d17f9f2df0fed2c77648de5860a4cc508cd0818c85b8b8a1ab4ceeef8d981c8956a66109cc61182e565b61127a565b610a10576040517f08c379a0000000000000000000000000000000000000000000000000000000008152600401610a07906146c2565b60405180910390fd5b7f0000000000000000000000000000000000000000000000000000000000000000610a39610993565b10610a79576040517f08c379a0000000000000000000000000000000000000000000000000000000008152600401610a7090614822565b60405180910390fd5b610a83600e6118ef565b6000610a8f600e611905565b9050610a9b8282611913565b82600d60008381526020019081526020016000209080519060200190610ac292919061333a565b50505050565b7f000000000000000000000000000000000000000000000000000000000000000081565b610afd610af761182e565b82611ae1565b610b3c576040517f08c379a0000000000000000000000000000000000000000000000000000000008152600401610b33906148e2565b60405180910390fd5b610b47838383611bbf565b505050565b6000806000838152602001908152602001600020600101549050919050565b610b7482610b4c565b610b8581610b8061182e565b611e1b565b610b8f8383611eb8565b505050565b6000610b9f83611103565b8210610be0576040517f08c379a0000000000000000000000000000000000000000000000000000000008152600401610bd790614682565b60405180910390fd5b600860008473ffffffffffffffffffffffffffffffffffffffff1673ffffffffffffffffffffffffffffffffffffffff168152602001908152602001600020600083815260200190815260200160002054905092915050565b610c4161182e565b73ffffffffffffffffffffffffffffffffffffffff168173ffffffffffffffffffffffffffffffffffffffff1614610cae576040517f08c379a0000000000000000000000000000000000000000000000000000000008152600401610ca590614942565b60405180910390fd5b610cb88282611eec565b5050565b6060600d60008381526020019081526020016000208054610cdc90614c6d565b80601f0160208091040260200160405190810160405280929190818152602001828054610d0890614c6d565b8015610d555780601f10610d2a57610100808354040283529160200191610d55565b820191906000526020600020905b815481529060010190602001808311610d3857829003601f168201915b50505050509050919050565b610d927f65d7a28e3265b37a6474929f336521b332c1681b933f6cb9f3376673440d862a610d8d61182e565b61127a565b610dd1576040517f08c379a0000000000000000000000000000000000000000000000000000000008152600401610dc890614882565b60405180910390fd5b610dd9611f20565b565b610df6838383604051806020016040528060008152506113c6565b505050565b610e0c610e0661182e565b82611ae1565b610e4b576040517f08c379a0000000000000000000000000000000000000000000000000000000008152600401610e4290614922565b60405180910390fd5b610e5481611fc2565b50565b6000610e61610993565b8210610ea2576040517f08c379a0000000000000000000000000000000000000000000000000000000008152600401610e9990614902565b60405180910390fd5b600a8281548110610edc577f4e487b7100000000000000000000000000000000000000000000000000000000600052603260045260246000fd5b90600052602060002001549050919050565b6000600c60009054906101000a900460ff16905090565b60606000610f13600e611905565b905060008111610f58576040517f08c379a0000000000000000000000000000000000000000000000000000000008152600401610f4f90614702565b60405180910390fd5b6000610f6384611103565b905060008167ffffffffffffffff811115610fa7577f4e487b7100000000000000000000000000000000000000000000000000000000600052604160045260246000fd5b604051908082528060200260200182016040528015610fd55781602001602082028036833780820191505090505b50905060005b8281101561104557610fed8682610b94565b828281518110611026577f4e487b7100000000000000000000000000000000000000000000000000000000600052603260045260246000fd5b602002602001018181525050808061103d90614c9f565b915050610fdb565b50809350505050919050565b6000806004600084815260200190815260200160002060009054906101000a900473ffffffffffffffffffffffffffffffffffffffff169050600073ffffffffffffffffffffffffffffffffffffffff168173ffffffffffffffffffffffffffffffffffffffff1614156110fa576040517f08c379a00000000000000000000000000000000000000000000000000000000081526004016110f190614802565b60405180910390fd5b80915050919050565b60008073ffffffffffffffffffffffffffffffffffffffff168273ffffffffffffffffffffffffffffffffffffffff161415611174576040517f08c379a000000000000000000000000000000000000000000000000000000000815260040161116b906147c2565b60405180910390fd5b600560008373ffffffffffffffffffffffffffffffffffffffff1673ffffffffffffffffffffffffffffffffffffffff168152602001908152602001600020549050919050565b6111ec7f65d7a28e3265b37a6474929f336521b332c1681b933f6cb9f3376673440d862a6111e761182e565b61127a565b61122b576040517f08c379a000000000000000000000000000000000000000000000000000000000815260040161122290614662565b60405180910390fd5b6112336120d3565b565b600080611242600e611905565b90508091505090565b6000611272826001600086815260200190815260200160002061217690919063ffffffff16565b905092915050565b600080600084815260200190815260200160002060000160008373ffffffffffffffffffffffffffffffffffffffff1673ffffffffffffffffffffffffffffffffffffffff16815260200190815260200160002060009054906101000a900460ff16905092915050565b6060600380546112f390614c6d565b80601f016020809104026020016040519081016040528092919081815260200182805461131f90614c6d565b801561136c5780601f106113415761010080835404028352916020019161136c565b820191906000526020600020905b81548152906001019060200180831161134f57829003601f168201915b5050505050905090565b6000801b81565b61138f61138861182e565b8383612190565b5050565b60006113bf7f9f2df0fed2c77648de5860a4cc508cd0818c85b8b8a1ab4ceeef8d981c8956a68361127a565b9050919050565b6113d76113d161182e565b83611ae1565b611416576040517f08c379a000000000000000000000000000000000000000000000000000000000815260040161140d906148e2565b60405180910390fd5b611422848484846122fd565b50505050565b6060611433826117c2565b611472576040517f08c379a0000000000000000000000000000000000000000000000000000000008152600401611469906147e2565b60405180910390fd5b6040518060400160405280601c81526020017f68747470733a2f2f697066732e6570686572652e696f2f697066732f00000000815250600d60008481526020019081526020016000206040516020016114cc9291906144c3565b6040516020818303038152906040529050919050565b60006114ff60016000848152602001908152602001600020612359565b9050919050565b7f9f2df0fed2c77648de5860a4cc508cd0818c85b8b8a1ab4ceeef8d981c8956a681565b61153382610b4c565b6115448161153f61182e565b611e1b565b61154e8383611eec565b505050565b7f65d7a28e3265b37a6474929f336521b332c1681b933f6cb9f3376673440d862a81565b6000600760008473ffffffffffffffffffffffffffffffffffffffff1673ffffffffffffffffffffffffffffffffffffffff16815260200190815260200160002060008373ffffffffffffffffffffffffffffffffffffffff1673ffffffffffffffffffffffffffffffffffffffff16815260200190815260200160002060009054906101000a900460ff16905092915050565b6116357f9f2df0fed2c77648de5860a4cc508cd0818c85b8b8a1ab4ceeef8d981c8956a68261236e565b50565b611642828261127a565b61171457600160008084815260200190815260200160002060000160008373ffffffffffffffffffffffffffffffffffffffff1673ffffffffffffffffffffffffffffffffffffffff16815260200190815260200160002060006101000a81548160ff0219169083151502179055506116b961182e565b73ffffffffffffffffffffffffffffffffffffffff168173ffffffffffffffffffffffffffffffffffffffff16837f2f8788117e7eff1d82e926ec794901d17c78024a50270940304540a733656f0d60405160405180910390a45b5050565b6000611740836000018373ffffffffffffffffffffffffffffffffffffffff1660001b61237c565b905092915050565b60007f780e9d63000000000000000000000000000000000000000000000000000000007bffffffffffffffffffffffffffffffffffffffffffffffffffffffff1916827bffffffffffffffffffffffffffffffffffffffffffffffffffffffff191614806117bb57506117ba826123ec565b5b9050919050565b60008073ffffffffffffffffffffffffffffffffffffffff166004600084815260200190815260200160002060009054906101000a900473ffffffffffffffffffffffffffffffffffffffff1673ffffffffffffffffffffffffffffffffffffffff1614159050919050565b600033905090565b816006600083815260200190815260200160002060006101000a81548173ffffffffffffffffffffffffffffffffffffffff021916908373ffffffffffffffffffffffffffffffffffffffff160217905550808273ffffffffffffffffffffffffffffffffffffffff166118a983611051565b73ffffffffffffffffffffffffffffffffffffffff167f8c5be1e5ebec7d5bd14f71427d1e84f3dd0314c0f7b2291e5b200ac8c7c3b92560405160405180910390a45050565b6001816000016000828254019250508190555050565b600081600001549050919050565b600073ffffffffffffffffffffffffffffffffffffffff168273ffffffffffffffffffffffffffffffffffffffff161415611983576040517f08c379a000000000000000000000000000000000000000000000000000000000815260040161197a90614842565b60405180910390fd5b61198c816117c2565b156119cc576040517f08c379a00000000000000000000000000000000000000000000000000000000081526004016119c3906146e2565b60405180910390fd5b6119d8600083836124ce565b6001600560008473ffffffffffffffffffffffffffffffffffffffff1673ffffffffffffffffffffffffffffffffffffffff1681526020019081526020016000206000828254611a289190614a9f565b92505081905550816004600083815260200190815260200160002060006101000a81548173ffffffffffffffffffffffffffffffffffffffff021916908373ffffffffffffffffffffffffffffffffffffffff160217905550808273ffffffffffffffffffffffffffffffffffffffff16600073ffffffffffffffffffffffffffffffffffffffff167fddf252ad1be2c89b69c2b068fc378daa952ba7f163c4a11628f55a4df523b3ef60405160405180910390a45050565b6000611aec826117c2565b611b2b576040517f08c379a0000000000000000000000000000000000000000000000000000000008152600401611b2290614762565b60405180910390fd5b6000611b3683611051565b90508073ffffffffffffffffffffffffffffffffffffffff168473ffffffffffffffffffffffffffffffffffffffff161480611ba557508373ffffffffffffffffffffffffffffffffffffffff16611b8d846107f6565b73ffffffffffffffffffffffffffffffffffffffff16145b80611bb65750611bb58185611577565b5b91505092915050565b8273ffffffffffffffffffffffffffffffffffffffff16611bdf82611051565b73ffffffffffffffffffffffffffffffffffffffff1614611c35576040517f08c379a0000000000000000000000000000000000000000000000000000000008152600401611c2c906148a2565b60405180910390fd5b600073ffffffffffffffffffffffffffffffffffffffff168273ffffffffffffffffffffffffffffffffffffffff161415611ca5576040517f08c379a0000000000000000000000000000000000000000000000000000000008152600401611c9c90614722565b60405180910390fd5b611cb08383836124ce565b611cbb600082611836565b6001600560008573ffffffffffffffffffffffffffffffffffffffff1673ffffffffffffffffffffffffffffffffffffffff1681526020019081526020016000206000828254611d0b9190614b4f565b925050819055506001600560008473ffffffffffffffffffffffffffffffffffffffff1673ffffffffffffffffffffffffffffffffffffffff1681526020019081526020016000206000828254611d629190614a9f565b92505081905550816004600083815260200190815260200160002060006101000a81548173ffffffffffffffffffffffffffffffffffffffff021916908373ffffffffffffffffffffffffffffffffffffffff160217905550808273ffffffffffffffffffffffffffffffffffffffff168473ffffffffffffffffffffffffffffffffffffffff167fddf252ad1be2c89b69c2b068fc378daa952ba7f163c4a11628f55a4df523b3ef60405160405180910390a4505050565b611e25828261127a565b611eb457611e4a8173ffffffffffffffffffffffffffffffffffffffff166014612533565b611e588360001c6020612533565b604051602001611e699291906144e7565b6040516020818303038152906040526040517f08c379a0000000000000000000000000000000000000000000000000000000008152600401611eab91906145e0565b60405180910390fd5b5050565b611ec28282611638565b611ee7816001600085815260200190815260200160002061171890919063ffffffff16565b505050565b611ef6828261282d565b611f1b816001600085815260200190815260200160002061290e90919063ffffffff16565b505050565b611f28610eee565b611f67576040517f08c379a0000000000000000000000000000000000000000000000000000000008152600401611f5e90614642565b60405180910390fd5b6000600c60006101000a81548160ff0219169083151502179055507f5db9ee0a495bf2e6ff9c91a7834c1ba4fdd244a5e8aa4e537bd38aeae4b073aa611fab61182e565b604051611fb89190614521565b60405180910390a1565b6000611fcd82611051565b9050611fdb816000846124ce565b611fe6600083611836565b6001600560008373ffffffffffffffffffffffffffffffffffffffff1673ffffffffffffffffffffffffffffffffffffffff16815260200190815260200160002060008282546120369190614b4f565b925050819055506004600083815260200190815260200160002060006101000a81549073ffffffffffffffffffffffffffffffffffffffff021916905581600073ffffffffffffffffffffffffffffffffffffffff168273ffffffffffffffffffffffffffffffffffffffff167fddf252ad1be2c89b69c2b068fc378daa952ba7f163c4a11628f55a4df523b3ef60405160405180910390a45050565b6120db610eee565b1561211b576040517f08c379a000000000000000000000000000000000000000000000000000000000815260040161211290614782565b60405180910390fd5b6001600c60006101000a81548160ff0219169083151502179055507f62e78cea01bee320cd4e420270b5ea74000d11b0c9f74754ebdbfc544b05a25861215f61182e565b60405161216c9190614521565b60405180910390a1565b6000612185836000018361293e565b60001c905092915050565b8173ffffffffffffffffffffffffffffffffffffffff168373ffffffffffffffffffffffffffffffffffffffff1614156121ff576040517f08c379a00000000000000000000000000000000000000000000000000000000081526004016121f690614742565b60405180910390fd5b80600760008573ffffffffffffffffffffffffffffffffffffffff1673ffffffffffffffffffffffffffffffffffffffff16815260200190815260200160002060008473ffffffffffffffffffffffffffffffffffffffff1673ffffffffffffffffffffffffffffffffffffffff16815260200190815260200160002060006101000a81548160ff0219169083151502179055508173ffffffffffffffffffffffffffffffffffffffff168373ffffffffffffffffffffffffffffffffffffffff167f17307eab39ab6107e8899845ad3d59bd9653f200f220920489ca2b5937696c31836040516122f091906145aa565b60405180910390a3505050565b612308848484611bbf565b6123148484848461298f565b612353576040517f08c379a000000000000000000000000000000000000000000000000000000000815260040161234a906146a2565b60405180910390fd5b50505050565b600061236782600001612b26565b9050919050565b6123788282611eb8565b5050565b60006123888383612b37565b6123e15782600001829080600181540180825580915050600190039060005260206000200160009091909190915055826000018054905083600101600084815260200190815260200160002081905550600190506123e6565b600090505b92915050565b60007f80ac58cd000000000000000000000000000000000000000000000000000000007bffffffffffffffffffffffffffffffffffffffffffffffffffffffff1916827bffffffffffffffffffffffffffffffffffffffffffffffffffffffff191614806124b757507f5b5e139f000000000000000000000000000000000000000000000000000000007bffffffffffffffffffffffffffffffffffffffffffffffffffffffff1916827bffffffffffffffffffffffffffffffffffffffffffffffffffffffff1916145b806124c757506124c682612b5a565b5b9050919050565b6124d9838383612bd4565b600073ffffffffffffffffffffffffffffffffffffffff168273ffffffffffffffffffffffffffffffffffffffff16141561252e57600d6000828152602001908152602001600020600061252d91906133c0565b5b505050565b6060600060028360026125469190614af5565b6125509190614a9f565b67ffffffffffffffff81111561258f577f4e487b7100000000000000000000000000000000000000000000000000000000600052604160045260246000fd5b6040519080825280601f01601f1916602001820160405280156125c15781602001600182028036833780820191505090505b5090507f30000000000000000000000000000000000000000000000000000000000000008160008151811061261f577f4e487b7100000000000000000000000000000000000000000000000000000000600052603260045260246000fd5b60200101907effffffffffffffffffffffffffffffffffffffffffffffffffffffffffffff1916908160001a9053507f7800000000000000000000000000000000000000000000000000000000000000816001815181106126a9577f4e487b7100000000000000000000000000000000000000000000000000000000600052603260045260246000fd5b60200101907effffffffffffffffffffffffffffffffffffffffffffffffffffffffffffff1916908160001a905350600060018460026126e99190614af5565b6126f39190614a9f565b90505b60018111156127df577f3031323334353637383961626364656600000000000000000000000000000000600f86166010811061275b577f4e487b7100000000000000000000000000000000000000000000000000000000600052603260045260246000fd5b1a60f81b828281518110612798577f4e487b7100000000000000000000000000000000000000000000000000000000600052603260045260246000fd5b60200101907effffffffffffffffffffffffffffffffffffffffffffffffffffffffffffff1916908160001a905350600485901c9450806127d890614c43565b90506126f6565b5060008414612823576040517f08c379a000000000000000000000000000000000000000000000000000000000815260040161281a90614602565b60405180910390fd5b8091505092915050565b612837828261127a565b1561290a57600080600084815260200190815260200160002060000160008373ffffffffffffffffffffffffffffffffffffffff1673ffffffffffffffffffffffffffffffffffffffff16815260200190815260200160002060006101000a81548160ff0219169083151502179055506128af61182e565b73ffffffffffffffffffffffffffffffffffffffff168173ffffffffffffffffffffffffffffffffffffffff16837ff6391f5c32d9c69d2a47ea670b442974b53935d1edc7fd64eb21e047a839171b60405160405180910390a45b5050565b6000612936836000018373ffffffffffffffffffffffffffffffffffffffff1660001b612c2c565b905092915050565b600082600001828154811061297c577f4e487b7100000000000000000000000000000000000000000000000000000000600052603260045260246000fd5b9060005260206000200154905092915050565b60006129b08473ffffffffffffffffffffffffffffffffffffffff16612db2565b15612b19578373ffffffffffffffffffffffffffffffffffffffff1663150b7a026129d961182e565b8786866040518563ffffffff1660e01b81526004016129fb949392919061453c565b602060405180830381600087803b158015612a1557600080fd5b505af1925050508015612a4657506040513d601f19601f82011682018060405250810190612a4391906137dc565b60015b612ac9573d8060008114612a76576040519150601f19603f3d011682016040523d82523d6000602084013e612a7b565b606091505b50600081511415612ac1576040517f08c379a0000000000000000000000000000000000000000000000000000000008152600401612ab8906146a2565b60405180910390fd5b805181602001fd5b63150b7a0260e01b7bffffffffffffffffffffffffffffffffffffffffffffffffffffffff1916817bffffffffffffffffffffffffffffffffffffffffffffffffffffffff191614915050612b1e565b600190505b949350505050565b600081600001805490509050919050565b600080836001016000848152602001908152602001600020541415905092915050565b60007f5a05180f000000000000000000000000000000000000000000000000000000007bffffffffffffffffffffffffffffffffffffffffffffffffffffffff1916827bffffffffffffffffffffffffffffffffffffffffffffffffffffffff19161480612bcd5750612bcc82612dc5565b5b9050919050565b612bdf838383612e3f565b612be7610eee565b15612c27576040517f08c379a0000000000000000000000000000000000000000000000000000000008152600401612c1e90614622565b60405180910390fd5b505050565b60008083600101600084815260200190815260200160002054905060008114612da6576000600182612c5e9190614b4f565b9050600060018660000180549050612c769190614b4f565b9050818114612d31576000866000018281548110612cbd577f4e487b7100000000000000000000000000000000000000000000000000000000600052603260045260246000fd5b9060005260206000200154905080876000018481548110612d07577f4e487b7100000000000000000000000000000000000000000000000000000000600052603260045260246000fd5b90600052602060002001819055508387600101600083815260200190815260200160002081905550505b85600001805480612d6b577f4e487b7100000000000000000000000000000000000000000000000000000000600052603160045260246000fd5b600190038181906000526020600020016000905590558560010160008681526020019081526020016000206000905560019350505050612dac565b60009150505b92915050565b600080823b905060008111915050919050565b60007f7965db0b000000000000000000000000000000000000000000000000000000007bffffffffffffffffffffffffffffffffffffffffffffffffffffffff1916827bffffffffffffffffffffffffffffffffffffffffffffffffffffffff19161480612e385750612e3782612f53565b5b9050919050565b612e4a838383612fbd565b600073ffffffffffffffffffffffffffffffffffffffff168373ffffffffffffffffffffffffffffffffffffffff161415612e8d57612e8881612fc2565b612ecc565b8173ffffffffffffffffffffffffffffffffffffffff168373ffffffffffffffffffffffffffffffffffffffff1614612ecb57612eca838261300b565b5b5b600073ffffffffffffffffffffffffffffffffffffffff168273ffffffffffffffffffffffffffffffffffffffff161415612f0f57612f0a81613178565b612f4e565b8273ffffffffffffffffffffffffffffffffffffffff168273ffffffffffffffffffffffffffffffffffffffff1614612f4d57612f4c82826132bb565b5b5b505050565b60007f01ffc9a7000000000000000000000000000000000000000000000000000000007bffffffffffffffffffffffffffffffffffffffffffffffffffffffff1916827bffffffffffffffffffffffffffffffffffffffffffffffffffffffff1916149050919050565b505050565b600a80549050600b600083815260200190815260200160002081905550600a81908060018154018082558091505060019003906000526020600020016000909190919091505550565b6000600161301884611103565b6130229190614b4f565b9050600060096000848152602001908152602001600020549050818114613107576000600860008673ffffffffffffffffffffffffffffffffffffffff1673ffffffffffffffffffffffffffffffffffffffff168152602001908152602001600020600084815260200190815260200160002054905080600860008773ffffffffffffffffffffffffffffffffffffffff1673ffffffffffffffffffffffffffffffffffffffff168152602001908152602001600020600084815260200190815260200160002081905550816009600083815260200190815260200160002081905550505b6009600084815260200190815260200160002060009055600860008573ffffffffffffffffffffffffffffffffffffffff1673ffffffffffffffffffffffffffffffffffffffff16815260200190815260200160002060008381526020019081526020016000206000905550505050565b60006001600a8054905061318c9190614b4f565b90506000600b60008481526020019081526020016000205490506000600a83815481106131e2577f4e487b7100000000000000000000000000000000000000000000000000000000600052603260045260246000fd5b9060005260206000200154905080600a838154811061322a577f4e487b7100000000000000000000000000000000000000000000000000000000600052603260045260246000fd5b906000526020600020018190555081600b600083815260200190815260200160002081905550600b600085815260200190815260200160002060009055600a80548061329f577f4e487b7100000000000000000000000000000000000000000000000000000000600052603160045260246000fd5b6001900381819060005260206000200160009055905550505050565b60006132c683611103565b905081600860008573ffffffffffffffffffffffffffffffffffffffff1673ffffffffffffffffffffffffffffffffffffffff168152602001908152602001600020600083815260200190815260200160002081905550806009600084815260200190815260200160002081905550505050565b82805461334690614c6d565b90600052602060002090601f01602090048101928261336857600085556133af565b82601f1061338157805160ff19168380011785556133af565b828001600101855582156133af579182015b828111156133ae578251825591602001919060010190613393565b5b5090506133bc9190613400565b5090565b5080546133cc90614c6d565b6000825580601f106133de57506133fd565b601f0160209004906000526020600020908101906133fc9190613400565b5b50565b5b80821115613419576000816000905550600101613401565b5090565b600061343061342b846149ae565b61497d565b90508281526020810184848401111561344857600080fd5b613453848285614c01565b509392505050565b600061346e613469846149de565b61497d565b90508281526020810184848401111561348657600080fd5b613491848285614c01565b509392505050565b6000813590506134a881614d86565b92915050565b6000813590506134bd81614d9d565b92915050565b6000813590506134d281614db4565b92915050565b6000813590506134e781614dcb565b92915050565b6000815190506134fc81614dcb565b92915050565b600082601f83011261351357600080fd5b813561352384826020860161341d565b91505092915050565b600082601f83011261353d57600080fd5b813561354d84826020860161345b565b91505092915050565b60008135905061356581614de2565b92915050565b60006020828403121561357d57600080fd5b600061358b84828501613499565b91505092915050565b600080604083850312156135a757600080fd5b60006135b585828601613499565b92505060206135c685828601613499565b9150509250929050565b6000806000606084860312156135e557600080fd5b60006135f386828701613499565b935050602061360486828701613499565b925050604061361586828701613556565b9150509250925092565b6000806000806080858703121561363557600080fd5b600061364387828801613499565b945050602061365487828801613499565b935050604061366587828801613556565b925050606085013567ffffffffffffffff81111561368257600080fd5b61368e87828801613502565b91505092959194509250565b600080604083850312156136ad57600080fd5b60006136bb85828601613499565b92505060206136cc858286016134ae565b9150509250929050565b600080604083850312156136e957600080fd5b60006136f785828601613499565b925050602061370885828601613556565b9150509250929050565b60006020828403121561372457600080fd5b6000613732848285016134c3565b91505092915050565b6000806040838503121561374e57600080fd5b600061375c858286016134c3565b925050602061376d85828601613499565b9150509250929050565b6000806040838503121561378a57600080fd5b6000613798858286016134c3565b92505060206137a985828601613556565b9150509250929050565b6000602082840312156137c557600080fd5b60006137d3848285016134d8565b91505092915050565b6000602082840312156137ee57600080fd5b60006137fc848285016134ed565b91505092915050565b6000806040838503121561381857600080fd5b600083013567ffffffffffffffff81111561383257600080fd5b61383e8582860161352c565b925050602061384f85828601613499565b9150509250929050565b60006020828403121561386b57600080fd5b600061387984828501613556565b91505092915050565b600061388e83836144a5565b60208301905092915050565b6138a381614b83565b82525050565b60006138b482614a33565b6138be8185614a61565b93506138c983614a0e565b8060005b838110156138fa5781516138e18882613882565b97506138ec83614a54565b9250506001810190506138cd565b5085935050505092915050565b61391081614b95565b82525050565b61391f81614ba1565b82525050565b600061393082614a3e565b61393a8185614a72565b935061394a818560208601614c10565b61395381614d75565b840191505092915050565b600061396982614a49565b6139738185614a83565b9350613983818560208601614c10565b61398c81614d75565b840191505092915050565b60006139a282614a49565b6139ac8185614a94565b93506139bc818560208601614c10565b80840191505092915050565b600081546139d581614c6d565b6139df8186614a94565b945060018216600081146139fa5760018114613a0b57613a3e565b60ff19831686528186019350613a3e565b613a1485614a1e565b60005b83811015613a3657815481890152600182019150602081019050613a17565b838801955050505b50505092915050565b6000613a54602083614a83565b91507f537472696e67733a20686578206c656e67746820696e73756666696369656e746000830152602082019050919050565b6000613a94602b83614a83565b91507f4552433732315061757361626c653a20746f6b656e207472616e73666572207760008301527f68696c65207061757365640000000000000000000000000000000000000000006020830152604082019050919050565b6000613afa601483614a83565b91507f5061757361626c653a206e6f74207061757365640000000000000000000000006000830152602082019050919050565b6000613b3a603683614a83565b91507f457068657265466f6f7462616c6c65724552433732313a206d7573742068617660008301527f652070617573657220726f6c6520746f207061757365000000000000000000006020830152604082019050919050565b6000613ba0602b83614a83565b91507f455243373231456e756d657261626c653a206f776e657220696e646578206f7560008301527f74206f6620626f756e64730000000000000000000000000000000000000000006020830152604082019050919050565b6000613c06603283614a83565b91507f4552433732313a207472616e7366657220746f206e6f6e20455243373231526560008301527f63656976657220696d706c656d656e74657200000000000000000000000000006020830152604082019050919050565b6000613c6c603583614a83565b91507f457068657265466f6f7462616c6c65724552433732313a206d7573742068617660008301527f65206d696e74657220726f6c6520746f206d696e7400000000000000000000006020830152604082019050919050565b6000613cd2601c83614a83565b91507f4552433732313a20746f6b656e20616c7265616479206d696e746564000000006000830152602082019050919050565b6000613d12602183614a83565b91507f5468657265206973206e6f204570686572652045524320373231206d696e746560008301527f64000000000000000000000000000000000000000000000000000000000000006020830152604082019050919050565b6000613d78602483614a83565b91507f4552433732313a207472616e7366657220746f20746865207a65726f2061646460008301527f72657373000000000000000000000000000000000000000000000000000000006020830152604082019050919050565b6000613dde601983614a83565b91507f4552433732313a20617070726f766520746f2063616c6c6572000000000000006000830152602082019050919050565b6000613e1e602c83614a83565b91507f4552433732313a206f70657261746f7220717565727920666f72206e6f6e657860008301527f697374656e7420746f6b656e00000000000000000000000000000000000000006020830152604082019050919050565b6000613e84601083614a83565b91507f5061757361626c653a20706175736564000000000000000000000000000000006000830152602082019050919050565b6000613ec4603883614a83565b91507f4552433732313a20617070726f76652063616c6c6572206973206e6f74206f7760008301527f6e6572206e6f7220617070726f76656420666f7220616c6c00000000000000006020830152604082019050919050565b6000613f2a602a83614a83565b91507f4552433732313a2062616c616e636520717565727920666f7220746865207a6560008301527f726f2061646472657373000000000000000000000000000000000000000000006020830152604082019050919050565b6000613f90603783614a83565b91507f457068657265466f6f7462616c6c65724552433732313a20555249207175657260008301527f7920666f72206e6f6e6578697374656e7420746f6b656e0000000000000000006020830152604082019050919050565b6000613ff6602983614a83565b91507f4552433732313a206f776e657220717565727920666f72206e6f6e657869737460008301527f656e7420746f6b656e00000000000000000000000000000000000000000000006020830152604082019050919050565b600061405c603683614a83565b91507f457068657265466f6f7462616c6c65724552433732313a2063616e6e6f74206560008301527f7863656564206d617820746f74616c20737570706c79000000000000000000006020830152604082019050919050565b60006140c2602083614a83565b91507f4552433732313a206d696e7420746f20746865207a65726f20616464726573736000830152602082019050919050565b6000614102602c83614a83565b91507f4552433732313a20617070726f76656420717565727920666f72206e6f6e657860008301527f697374656e7420746f6b656e00000000000000000000000000000000000000006020830152604082019050919050565b6000614168603883614a83565b91507f457068657265466f6f7462616c6c65724552433732313a206d7573742068617660008301527f652070617573657220726f6c6520746f20756e706175736500000000000000006020830152604082019050919050565b60006141ce602983614a83565b91507f4552433732313a207472616e73666572206f6620746f6b656e2074686174206960008301527f73206e6f74206f776e00000000000000000000000000000000000000000000006020830152604082019050919050565b6000614234602183614a83565b91507f4552433732313a20617070726f76616c20746f2063757272656e74206f776e6560008301527f72000000000000000000000000000000000000000000000000000000000000006020830152604082019050919050565b600061429a603183614a83565b91507f4552433732313a207472616e736665722063616c6c6572206973206e6f74206f60008301527f776e6572206e6f7220617070726f7665640000000000000000000000000000006020830152604082019050919050565b6000614300602c83614a83565b91507f455243373231456e756d657261626c653a20676c6f62616c20696e646578206f60008301527f7574206f6620626f756e647300000000000000000000000000000000000000006020830152604082019050919050565b6000614366601783614a94565b91507f416363657373436f6e74726f6c3a206163636f756e74200000000000000000006000830152601782019050919050565b60006143a6603083614a83565b91507f4552433732314275726e61626c653a2063616c6c6572206973206e6f74206f7760008301527f6e6572206e6f7220617070726f766564000000000000000000000000000000006020830152604082019050919050565b600061440c601183614a94565b91507f206973206d697373696e6720726f6c65200000000000000000000000000000006000830152601182019050919050565b600061444c602f83614a83565b91507f416363657373436f6e74726f6c3a2063616e206f6e6c792072656e6f756e636560008301527f20726f6c657320666f722073656c6600000000000000000000000000000000006020830152604082019050919050565b6144ae81614bf7565b82525050565b6144bd81614bf7565b82525050565b60006144cf8285613997565b91506144db82846139c8565b91508190509392505050565b60006144f282614359565b91506144fe8285613997565b9150614509826143ff565b91506145158284613997565b91508190509392505050565b6000602082019050614536600083018461389a565b92915050565b6000608082019050614551600083018761389a565b61455e602083018661389a565b61456b60408301856144b4565b818103606083015261457d8184613925565b905095945050505050565b600060208201905081810360008301526145a281846138a9565b905092915050565b60006020820190506145bf6000830184613907565b92915050565b60006020820190506145da6000830184613916565b92915050565b600060208201905081810360008301526145fa818461395e565b905092915050565b6000602082019050818103600083015261461b81613a47565b9050919050565b6000602082019050818103600083015261463b81613a87565b9050919050565b6000602082019050818103600083015261465b81613aed565b9050919050565b6000602082019050818103600083015261467b81613b2d565b9050919050565b6000602082019050818103600083015261469b81613b93565b9050919050565b600060208201905081810360008301526146bb81613bf9565b9050919050565b600060208201905081810360008301526146db81613c5f565b9050919050565b600060208201905081810360008301526146fb81613cc5565b9050919050565b6000602082019050818103600083015261471b81613d05565b9050919050565b6000602082019050818103600083015261473b81613d6b565b9050919050565b6000602082019050818103600083015261475b81613dd1565b9050919050565b6000602082019050818103600083015261477b81613e11565b9050919050565b6000602082019050818103600083015261479b81613e77565b9050919050565b600060208201905081810360008301526147bb81613eb7565b9050919050565b600060208201905081810360008301526147db81613f1d565b9050919050565b600060208201905081810360008301526147fb81613f83565b9050919050565b6000602082019050818103600083015261481b81613fe9565b9050919050565b6000602082019050818103600083015261483b8161404f565b9050919050565b6000602082019050818103600083015261485b816140b5565b9050919050565b6000602082019050818103600083015261487b816140f5565b9050919050565b6000602082019050818103600083015261489b8161415b565b9050919050565b600060208201905081810360008301526148bb816141c1565b9050919050565b600060208201905081810360008301526148db81614227565b9050919050565b600060208201905081810360008301526148fb8161428d565b9050919050565b6000602082019050818103600083015261491b816142f3565b9050919050565b6000602082019050818103600083015261493b81614399565b9050919050565b6000602082019050818103600083015261495b8161443f565b9050919050565b600060208201905061497760008301846144b4565b92915050565b6000604051905081810181811067ffffffffffffffff821117156149a4576149a3614d46565b5b8060405250919050565b600067ffffffffffffffff8211156149c9576149c8614d46565b5b601f19601f8301169050602081019050919050565b600067ffffffffffffffff8211156149f9576149f8614d46565b5b601f19601f8301169050602081019050919050565b6000819050602082019050919050565b60008190508160005260206000209050919050565b600081519050919050565b600081519050919050565b600081519050919050565b6000602082019050919050565b600082825260208201905092915050565b600082825260208201905092915050565b600082825260208201905092915050565b600081905092915050565b6000614aaa82614bf7565b9150614ab583614bf7565b9250827fffffffffffffffffffffffffffffffffffffffffffffffffffffffffffffffff03821115614aea57614ae9614ce8565b5b828201905092915050565b6000614b0082614bf7565b9150614b0b83614bf7565b9250817fffffffffffffffffffffffffffffffffffffffffffffffffffffffffffffffff0483118215151615614b4457614b43614ce8565b5b828202905092915050565b6000614b5a82614bf7565b9150614b6583614bf7565b925082821015614b7857614b77614ce8565b5b828203905092915050565b6000614b8e82614bd7565b9050919050565b60008115159050919050565b6000819050919050565b60007fffffffff0000000000000000000000000000000000000000000000000000000082169050919050565b600073ffffffffffffffffffffffffffffffffffffffff82169050919050565b6000819050919050565b82818337600083830152505050565b60005b83811015614c2e578082015181840152602081019050614c13565b83811115614c3d576000848401525b50505050565b6000614c4e82614bf7565b91506000821415614c6257614c61614ce8565b5b600182039050919050565b60006002820490506001821680614c8557607f821691505b60208210811415614c9957614c98614d17565b5b50919050565b6000614caa82614bf7565b91507fffffffffffffffffffffffffffffffffffffffffffffffffffffffffffffffff821415614cdd57614cdc614ce8565b5b600182019050919050565b7f4e487b7100000000000000000000000000000000000000000000000000000000600052601160045260246000fd5b7f4e487b7100000000000000000000000000000000000000000000000000000000600052602260045260246000fd5b7f4e487b7100000000000000000000000000000000000000000000000000000000600052604160045260246000fd5b6000601f19601f8301169050919050565b614d8f81614b83565b8114614d9a57600080fd5b50565b614da681614b95565b8114614db157600080fd5b50565b614dbd81614ba1565b8114614dc857600080fd5b50565b614dd481614bab565b8114614ddf57600080fd5b50565b614deb81614bf7565b8114614df657600080fd5b5056fea264697066735822122076ac3ec5c6cf2329eb1d6ac7e539ba2d9cb44a66d577cac3abc5b982798cf70864736f6c63430008000033",
  "linkReferences": {},
  "deployedLinkReferences": {}
}