{
  "_format": "hh-sol-artifact-1",
  "contractName": "EphereFootballerERC721",
  "sourceName": "contracts/EphereFootballerERC721.sol",
  "abi": [
    {
      "inputs": [
        {
          "internalType": "uint256",
          "name": "maxSupply",
          "type": "uint256"
        }
      ],
      "stateMutability": "nonpayable",
      "type": "constructor"
    },
    {
      "anonymous": false,
      "inputs": [
        {
          "indexed": true,
          "internalType": "address",
          "name": "owner",
          "type": "address"
        },
        {
          "indexed": true,
          "internalType": "address",
          "name": "approved",
          "type": "address"
        },
        {
          "indexed": true,
          "internalType": "uint256",
          "name": "tokenId",
          "type": "uint256"
        }
      ],
      "name": "Approval",
      "type": "event"
    },
    {
      "anonymous": false,
      "inputs": [
        {
          "indexed": true,
          "internalType": "address",
          "name": "owner",
          "type": "address"
        },
        {
          "indexed": true,
          "internalType": "address",
          "name": "operator",
          "type": "address"
        },
        {
          "indexed": false,
          "internalType": "bool",
          "name": "approved",
          "type": "bool"
        }
      ],
      "name": "ApprovalForAll",
      "type": "event"
    },
    {
      "anonymous": false,
      "inputs": [
        {
          "indexed": false,
          "internalType": "address",
          "name": "account",
          "type": "address"
        }
      ],
      "name": "Paused",
      "type": "event"
    },
    {
      "anonymous": false,
      "inputs": [
        {
          "indexed": true,
          "internalType": "bytes32",
          "name": "role",
          "type": "bytes32"
        },
        {
          "indexed": true,
          "internalType": "bytes32",
          "name": "previousAdminRole",
          "type": "bytes32"
        },
        {
          "indexed": true,
          "internalType": "bytes32",
          "name": "newAdminRole",
          "type": "bytes32"
        }
      ],
      "name": "RoleAdminChanged",
      "type": "event"
    },
    {
      "anonymous": false,
      "inputs": [
        {
          "indexed": true,
          "internalType": "bytes32",
          "name": "role",
          "type": "bytes32"
        },
        {
          "indexed": true,
          "internalType": "address",
          "name": "account",
          "type": "address"
        },
        {
          "indexed": true,
          "internalType": "address",
          "name": "sender",
          "type": "address"
        }
      ],
      "name": "RoleGranted",
      "type": "event"
    },
    {
      "anonymous": false,
      "inputs": [
        {
          "indexed": true,
          "internalType": "bytes32",
          "name": "role",
          "type": "bytes32"
        },
        {
          "indexed": true,
          "internalType": "address",
          "name": "account",
          "type": "address"
        },
        {
          "indexed": true,
          "internalType": "address",
          "name": "sender",
          "type": "address"
        }
      ],
      "name": "RoleRevoked",
      "type": "event"
    },
    {
      "anonymous": false,
      "inputs": [
        {
          "indexed": true,
          "internalType": "address",
          "name": "from",
          "type": "address"
        },
        {
          "indexed": true,
          "internalType": "address",
          "name": "to",
          "type": "address"
        },
        {
          "indexed": true,
          "internalType": "uint256",
          "name": "tokenId",
          "type": "uint256"
        }
      ],
      "name": "Transfer",
      "type": "event"
    },
    {
      "anonymous": false,
      "inputs": [
        {
          "indexed": false,
          "internalType": "address",
          "name": "account",
          "type": "address"
        }
      ],
      "name": "Unpaused",
      "type": "event"
    },
    {
      "inputs": [],
      "name": "DEFAULT_ADMIN_ROLE",
      "outputs": [
        {
          "internalType": "bytes32",
          "name": "",
          "type": "bytes32"
        }
      ],
      "stateMutability": "view",
      "type": "function"
    },
    {
      "inputs": [],
      "name": "MINTER_ROLE",
      "outputs": [
        {
          "internalType": "bytes32",
          "name": "",
          "type": "bytes32"
        }
      ],
      "stateMutability": "view",
      "type": "function"
    },
    {
      "inputs": [],
      "name": "PAUSER_ROLE",
      "outputs": [
        {
          "internalType": "bytes32",
          "name": "",
          "type": "bytes32"
        }
      ],
      "stateMutability": "view",
      "type": "function"
    },
    {
      "inputs": [],
      "name": "_maxSupply",
      "outputs": [
        {
          "internalType": "uint256",
          "name": "",
          "type": "uint256"
        }
      ],
      "stateMutability": "view",
      "type": "function"
    },
    {
      "inputs": [
        {
          "internalType": "address",
          "name": "to",
          "type": "address"
        },
        {
          "internalType": "uint256",
          "name": "tokenId",
          "type": "uint256"
        }
      ],
      "name": "approve",
      "outputs": [],
      "stateMutability": "nonpayable",
      "type": "function"
    },
    {
      "inputs": [
        {
          "internalType": "address",
          "name": "owner",
          "type": "address"
        }
      ],
      "name": "balanceOf",
      "outputs": [
        {
          "internalType": "uint256",
          "name": "",
          "type": "uint256"
        }
      ],
      "stateMutability": "view",
      "type": "function"
    },
    {
      "inputs": [
        {
          "internalType": "uint256",
          "name": "tokenId",
          "type": "uint256"
        }
      ],
      "name": "burn",
      "outputs": [],
      "stateMutability": "nonpayable",
      "type": "function"
    },
    {
      "inputs": [
        {
          "internalType": "address",
          "name": "user",
          "type": "address"
        }
      ],
      "name": "checkMinter",
      "outputs": [
        {
          "internalType": "bool",
          "name": "",
          "type": "bool"
        }
      ],
      "stateMutability": "view",
      "type": "function"
    },
    {
      "inputs": [
        {
          "internalType": "uint256",
          "name": "tokenId",
          "type": "uint256"
        }
      ],
      "name": "getApproved",
      "outputs": [
        {
          "internalType": "address",
          "name": "",
          "type": "address"
        }
      ],
      "stateMutability": "view",
      "type": "function"
    },
    {
      "inputs": [
        {
          "internalType": "uint256",
          "name": "_id",
          "type": "uint256"
        }
      ],
      "name": "getCid",
      "outputs": [
        {
          "internalType": "string",
          "name": "",
          "type": "string"
        }
      ],
      "stateMutability": "view",
      "type": "function"
    },
    {
      "inputs": [],
      "name": "getCounter",
      "outputs": [
        {
          "internalType": "uint256",
          "name": "",
          "type": "uint256"
        }
      ],
      "stateMutability": "view",
      "type": "function"
    },
    {
      "inputs": [
        {
          "internalType": "bytes32",
          "name": "role",
          "type": "bytes32"
        }
      ],
      "name": "getRoleAdmin",
      "outputs": [
        {
          "internalType": "bytes32",
          "name": "",
          "type": "bytes32"
        }
      ],
      "stateMutability": "view",
      "type": "function"
    },
    {
      "inputs": [
        {
          "internalType": "bytes32",
          "name": "role",
          "type": "bytes32"
        },
        {
          "internalType": "uint256",
          "name": "index",
          "type": "uint256"
        }
      ],
      "name": "getRoleMember",
      "outputs": [
        {
          "internalType": "address",
          "name": "",
          "type": "address"
        }
      ],
      "stateMutability": "view",
      "type": "function"
    },
    {
      "inputs": [
        {
          "internalType": "bytes32",
          "name": "role",
          "type": "bytes32"
        }
      ],
      "name": "getRoleMemberCount",
      "outputs": [
        {
          "internalType": "uint256",
          "name": "",
          "type": "uint256"
        }
      ],
      "stateMutability": "view",
      "type": "function"
    },
    {
      "inputs": [
        {
          "internalType": "address",
          "name": "owner",
          "type": "address"
        }
      ],
      "name": "getTokenIdsFromAddress",
      "outputs": [
        {
          "internalType": "uint256[]",
          "name": "",
          "type": "uint256[]"
        }
      ],
      "stateMutability": "view",
      "type": "function"
    },
    {
      "inputs": [
        {
          "internalType": "bytes32",
          "name": "role",
          "type": "bytes32"
        },
        {
          "internalType": "address",
          "name": "account",
          "type": "address"
        }
      ],
      "name": "grantRole",
      "outputs": [],
      "stateMutability": "nonpayable",
      "type": "function"
    },
    {
      "inputs": [
        {
          "internalType": "bytes32",
          "name": "role",
          "type": "bytes32"
        },
        {
          "internalType": "address",
          "name": "account",
          "type": "address"
        }
      ],
      "name": "hasRole",
      "outputs": [
        {
          "internalType": "bool",
          "name": "",
          "type": "bool"
        }
      ],
      "stateMutability": "view",
      "type": "function"
    },
    {
      "inputs": [
        {
          "internalType": "address",
          "name": "owner",
          "type": "address"
        },
        {
          "internalType": "address",
          "name": "operator",
          "type": "address"
        }
      ],
      "name": "isApprovedForAll",
      "outputs": [
        {
          "internalType": "bool",
          "name": "",
          "type": "bool"
        }
      ],
      "stateMutability": "view",
      "type": "function"
    },
    {
      "inputs": [
        {
          "internalType": "string",
          "name": "cid",
          "type": "string"
        },
        {
          "internalType": "address",
          "name": "to",
          "type": "address"
        }
      ],
      "name": "mint",
      "outputs": [],
      "stateMutability": "nonpayable",
      "type": "function"
    },
    {
      "inputs": [],
      "name": "name",
      "outputs": [
        {
          "internalType": "string",
          "name": "",
          "type": "string"
        }
      ],
      "stateMutability": "view",
      "type": "function"
    },
    {
      "inputs": [
        {
          "internalType": "uint256",
          "name": "tokenId",
          "type": "uint256"
        }
      ],
      "name": "ownerOf",
      "outputs": [
        {
          "internalType": "address",
          "name": "",
          "type": "address"
        }
      ],
      "stateMutability": "view",
      "type": "function"
    },
    {
      "inputs": [],
      "name": "pause",
      "outputs": [],
      "stateMutability": "nonpayable",
      "type": "function"
    },
    {
      "inputs": [],
      "name": "paused",
      "outputs": [
        {
          "internalType": "bool",
          "name": "",
          "type": "bool"
        }
      ],
      "stateMutability": "view",
      "type": "function"
    },
    {
      "inputs": [
        {
          "internalType": "bytes32",
          "name": "role",
          "type": "bytes32"
        },
        {
          "internalType": "address",
          "name": "account",
          "type": "address"
        }
      ],
      "name": "renounceRole",
      "outputs": [],
      "stateMutability": "nonpayable",
      "type": "function"
    },
    {
      "inputs": [
        {
          "internalType": "bytes32",
          "name": "role",
          "type": "bytes32"
        },
        {
          "internalType": "address",
          "name": "account",
          "type": "address"
        }
      ],
      "name": "revokeRole",
      "outputs": [],
      "stateMutability": "nonpayable",
      "type": "function"
    },
    {
      "inputs": [
        {
          "internalType": "address",
          "name": "from",
          "type": "address"
        },
        {
          "internalType": "address",
          "name": "to",
          "type": "address"
        },
        {
          "internalType": "uint256",
          "name": "tokenId",
          "type": "uint256"
        }
      ],
      "name": "safeTransferFrom",
      "outputs": [],
      "stateMutability": "nonpayable",
      "type": "function"
    },
    {
      "inputs": [
        {
          "internalType": "address",
          "name": "from",
          "type": "address"
        },
        {
          "internalType": "address",
          "name": "to",
          "type": "address"
        },
        {
          "internalType": "uint256",
          "name": "tokenId",
          "type": "uint256"
        },
        {
          "internalType": "bytes",
          "name": "_data",
          "type": "bytes"
        }
      ],
      "name": "safeTransferFrom",
      "outputs": [],
      "stateMutability": "nonpayable",
      "type": "function"
    },
    {
      "inputs": [
        {
          "internalType": "address",
          "name": "operator",
          "type": "address"
        },
        {
          "internalType": "bool",
          "name": "approved",
          "type": "bool"
        }
      ],
      "name": "setApprovalForAll",
      "outputs": [],
      "stateMutability": "nonpayable",
      "type": "function"
    },
    {
      "inputs": [
        {
          "internalType": "address",
          "name": "user",
          "type": "address"
        }
      ],
      "name": "setMinter",
      "outputs": [],
      "stateMutability": "nonpayable",
      "type": "function"
    },
    {
      "inputs": [
        {
          "internalType": "bytes4",
          "name": "interfaceId",
          "type": "bytes4"
        }
      ],
      "name": "supportsInterface",
      "outputs": [
        {
          "internalType": "bool",
          "name": "",
          "type": "bool"
        }
      ],
      "stateMutability": "view",
      "type": "function"
    },
    {
      "inputs": [],
      "name": "symbol",
      "outputs": [
        {
          "internalType": "string",
          "name": "",
          "type": "string"
        }
      ],
      "stateMutability": "view",
      "type": "function"
    },
    {
      "inputs": [
        {
          "internalType": "uint256",
          "name": "index",
          "type": "uint256"
        }
      ],
      "name": "tokenByIndex",
      "outputs": [
        {
          "internalType": "uint256",
          "name": "",
          "type": "uint256"
        }
      ],
      "stateMutability": "view",
      "type": "function"
    },
    {
      "inputs": [
        {
          "internalType": "address",
          "name": "owner",
          "type": "address"
        },
        {
          "internalType": "uint256",
          "name": "index",
          "type": "uint256"
        }
      ],
      "name": "tokenOfOwnerByIndex",
      "outputs": [
        {
          "internalType": "uint256",
          "name": "",
          "type": "uint256"
        }
      ],
      "stateMutability": "view",
      "type": "function"
    },
    {
      "inputs": [
        {
          "internalType": "uint256",
          "name": "tokenId",
          "type": "uint256"
        }
      ],
      "name": "tokenURI",
      "outputs": [
        {
          "internalType": "string",
          "name": "",
          "type": "string"
        }
      ],
      "stateMutability": "view",
      "type": "function"
    },
    {
      "inputs": [],
      "name": "totalSupply",
      "outputs": [
        {
          "internalType": "uint256",
          "name": "",
          "type": "uint256"
        }
      ],
      "stateMutability": "view",
      "type": "function"
    },
    {
      "inputs": [
        {
          "internalType": "address",
          "name": "from",
          "type": "address"
        },
        {
          "internalType": "address",
          "name": "to",
          "type": "address"
        },
        {
          "internalType": "uint256",
          "name": "tokenId",
          "type": "uint256"
        }
      ],
      "name": "transferFrom",
      "outputs": [],
      "stateMutability": "nonpayable",
      "type": "function"
    },
    {
      "inputs": [],
      "name": "unpause",
      "outputs": [],
      "stateMutability": "nonpayable",
      "type": "function"
    }
  ],
  "bytecode": "0x60a06040523480156200001157600080fd5b506040516200533338038062005333833981810160405281019062000037919062000504565b6040518060400160405280601681526020017f45706865726520466f6f7462616c6c20506c61796572000000000000000000008152506040518060400160405280600381526020017f45465000000000000000000000000000000000000000000000000000000000008152508160029080519060200190620000bb9291906200043d565b508060039080519060200190620000d49291906200043d565b5050506000600c60006101000a81548160ff02191690831515021790555080608081815250506200011e6000801b62000112620001a760201b60201c565b620001af60201b60201c565b6200015f7f9f2df0fed2c77648de5860a4cc508cd0818c85b8b8a1ab4ceeef8d981c8956a662000153620001a760201b60201c565b620001af60201b60201c565b620001a07f65d7a28e3265b37a6474929f336521b332c1681b933f6cb9f3376673440d862a62000194620001a760201b60201c565b620001af60201b60201c565b50620005b9565b600033905090565b620001c18282620001c560201b60201c565b5050565b620001dc82826200020d60201b620015e61760201c565b620002088160016000858152602001908152602001600020620002fe60201b620016c61790919060201c565b505050565b6200021f82826200033660201b60201c565b620002fa57600160008084815260200190815260200160002060000160008373ffffffffffffffffffffffffffffffffffffffff1673ffffffffffffffffffffffffffffffffffffffff16815260200190815260200160002060006101000a81548160ff0219169083151502179055506200029f620001a760201b60201c565b73ffffffffffffffffffffffffffffffffffffffff168173ffffffffffffffffffffffffffffffffffffffff16837f2f8788117e7eff1d82e926ec794901d17c78024a50270940304540a733656f0d60405160405180910390a45b5050565b60006200032e836000018373ffffffffffffffffffffffffffffffffffffffff1660001b620003a060201b60201c565b905092915050565b600080600084815260200190815260200160002060000160008373ffffffffffffffffffffffffffffffffffffffff1673ffffffffffffffffffffffffffffffffffffffff16815260200190815260200160002060009054906101000a900460ff16905092915050565b6000620003b483836200041a60201b60201c565b6200040f57826000018290806001815401808255809150506001900390600052602060002001600090919091909150558260000180549050836001016000848152602001908152602001600020819055506001905062000414565b600090505b92915050565b600080836001016000848152602001908152602001600020541415905092915050565b8280546200044b906200053a565b90600052602060002090601f0160209004810192826200046f5760008555620004bb565b82601f106200048a57805160ff1916838001178555620004bb565b82800160010185558215620004bb579182015b82811115620004ba5782518255916020019190600101906200049d565b5b509050620004ca9190620004ce565b5090565b5b80821115620004e9576000816000905550600101620004cf565b5090565b600081519050620004fe816200059f565b92915050565b6000602082840312156200051757600080fd5b60006200052784828501620004ed565b91505092915050565b6000819050919050565b600060028204905060018216806200055357607f821691505b602082108114156200056a576200056962000570565b5b50919050565b7f4e487b7100000000000000000000000000000000000000000000000000000000600052602260045260246000fd5b620005aa8162000530565b8114620005b657600080fd5b50565b608051614d57620005dc60003960008181610a120152610aca0152614d576000f3fe608060405234801561001057600080fd5b50600436106102275760003560e01c80635d81902f11610130578063a22cb465116100b8578063d53913931161007c578063d5391393146106ae578063d547741f146106cc578063e63ab1e9146106e8578063e985e9c514610706578063fca3b5aa1461073657610227565b8063a22cb465146105e6578063b789bb1a14610602578063b88d4fde14610632578063c87b56dd1461064e578063ca15c8731461067e57610227565b80638ada066e116100ff5780638ada066e1461052c5780639010d07c1461054a57806391d148541461057a57806395d89b41146105aa578063a217fddf146105c857610227565b80635d81902f146104925780636352211e146104c257806370a08231146104f25780638456cb591461052257610227565b80632f2ff15d116101b35780633f4ba83a116101825780633f4ba83a1461040257806342842e0e1461040c57806342966c68146104285780634f6ccce7146104445780635c975abb1461047457610227565b80632f2ff15d1461036a5780632f745c591461038657806336568abe146103b65780633beaa6ab146103d257610227565b806318160ddd116101fa57806318160ddd146102c65780631c351a9d146102e457806322f4596f1461030057806323b872dd1461031e578063248a9ca31461033a57610227565b806301ffc9a71461022c57806306fdde031461025c578063081812fc1461027a578063095ea7b3146102aa575b600080fd5b61024660048036038101906102419190613761565b610752565b60405161025391906144f2565b60405180910390f35b610264610764565b6040516102719190614528565b60405180910390f35b610294600480360381019061028f9190613807565b6107f6565b6040516102a19190614469565b60405180910390f35b6102c460048036038101906102bf9190613684565b61087b565b005b6102ce610993565b6040516102db919061488a565b60405180910390f35b6102fe60048036038101906102f991906137b3565b6109a0565b005b610308610ac8565b604051610315919061488a565b60405180910390f35b6103386004803603810190610333919061357e565b610aec565b005b610354600480360381019061034f91906136c0565b610b4c565b604051610361919061450d565b60405180910390f35b610384600480360381019061037f91906136e9565b610b6b565b005b6103a0600480360381019061039b9190613684565b610b94565b6040516103ad919061488a565b60405180910390f35b6103d060048036038101906103cb91906136e9565b610c39565b005b6103ec60048036038101906103e79190613807565b610cbc565b6040516103f99190614528565b60405180910390f35b61040a610d61565b005b6104266004803603810190610421919061357e565b610ddb565b005b610442600480360381019061043d9190613807565b610dfb565b005b61045e60048036038101906104599190613807565b610e57565b60405161046b919061488a565b60405180910390f35b61047c610eee565b60405161048991906144f2565b60405180910390f35b6104ac60048036038101906104a79190613519565b610f05565b6040516104b991906144d0565b60405180910390f35b6104dc60048036038101906104d79190613807565b610fff565b6040516104e99190614469565b60405180910390f35b61050c60048036038101906105079190613519565b6110b1565b604051610519919061488a565b60405180910390f35b61052a611169565b005b6105346111e3565b604051610541919061488a565b60405180910390f35b610564600480360381019061055f9190613725565b6111f9565b6040516105719190614469565b60405180910390f35b610594600480360381019061058f91906136e9565b611228565b6040516105a191906144f2565b60405180910390f35b6105b2611292565b6040516105bf9190614528565b60405180910390f35b6105d0611324565b6040516105dd919061450d565b60405180910390f35b61060060048036038101906105fb9190613648565b61132b565b005b61061c60048036038101906106179190613519565b611341565b60405161062991906144f2565b60405180910390f35b61064c600480360381019061064791906135cd565b611374565b005b61066860048036038101906106639190613807565b6113d6565b6040516106759190614528565b60405180910390f35b610698600480360381019061069391906136c0565b611490565b6040516106a5919061488a565b60405180910390f35b6106b66114b4565b6040516106c3919061450d565b60405180910390f35b6106e660048036038101906106e191906136e9565b6114d8565b005b6106f0611501565b6040516106fd919061450d565b60405180910390f35b610720600480360381019061071b9190613542565b611525565b60405161072d91906144f2565b60405180910390f35b610750600480360381019061074b9190613519565b6115b9565b005b600061075d826116f6565b9050919050565b60606002805461077390614b95565b80601f016020809104026020016040519081016040528092919081815260200182805461079f90614b95565b80156107ec5780601f106107c1576101008083540402835291602001916107ec565b820191906000526020600020905b8154815290600101906020018083116107cf57829003601f168201915b5050505050905090565b600061080182611770565b610840576040517f08c379a00000000000000000000000000000000000000000000000000000000081526004016108379061478a565b60405180910390fd5b6006600083815260200190815260200160002060009054906101000a900473ffffffffffffffffffffffffffffffffffffffff169050919050565b600061088682610fff565b90508073ffffffffffffffffffffffffffffffffffffffff168373ffffffffffffffffffffffffffffffffffffffff1614156108f7576040517f08c379a00000000000000000000000000000000000000000000000000000000081526004016108ee906147ea565b60405180910390fd5b8073ffffffffffffffffffffffffffffffffffffffff166109166117dc565b73ffffffffffffffffffffffffffffffffffffffff16148061094557506109448161093f6117dc565b611525565b5b610984576040517f08c379a000000000000000000000000000000000000000000000000000000000815260040161097b906146ca565b60405180910390fd5b61098e83836117e4565b505050565b6000600a80549050905090565b6109d17f9f2df0fed2c77648de5860a4cc508cd0818c85b8b8a1ab4ceeef8d981c8956a66109cc6117dc565b611228565b610a10576040517f08c379a0000000000000000000000000000000000000000000000000000000008152600401610a079061460a565b60405180910390fd5b7f0000000000000000000000000000000000000000000000000000000000000000610a39610993565b10610a79576040517f08c379a0000000000000000000000000000000000000000000000000000000008152600401610a709061474a565b60405180910390fd5b610a83600e61189d565b6000610a8f600e6118b3565b9050610a9b82826118c1565b82600d60008381526020019081526020016000209080519060200190610ac29291906132e8565b50505050565b7f000000000000000000000000000000000000000000000000000000000000000081565b610afd610af76117dc565b82611a8f565b610b3c576040517f08c379a0000000000000000000000000000000000000000000000000000000008152600401610b339061480a565b60405180910390fd5b610b47838383611b6d565b505050565b6000806000838152602001908152602001600020600101549050919050565b610b7482610b4c565b610b8581610b806117dc565b611dc9565b610b8f8383611e66565b505050565b6000610b9f836110b1565b8210610be0576040517f08c379a0000000000000000000000000000000000000000000000000000000008152600401610bd7906145ca565b60405180910390fd5b600860008473ffffffffffffffffffffffffffffffffffffffff1673ffffffffffffffffffffffffffffffffffffffff168152602001908152602001600020600083815260200190815260200160002054905092915050565b610c416117dc565b73ffffffffffffffffffffffffffffffffffffffff168173ffffffffffffffffffffffffffffffffffffffff1614610cae576040517f08c379a0000000000000000000000000000000000000000000000000000000008152600401610ca59061486a565b60405180910390fd5b610cb88282611e9a565b5050565b6060600d60008381526020019081526020016000208054610cdc90614b95565b80601f0160208091040260200160405190810160405280929190818152602001828054610d0890614b95565b8015610d555780601f10610d2a57610100808354040283529160200191610d55565b820191906000526020600020905b815481529060010190602001808311610d3857829003601f168201915b50505050509050919050565b610d927f65d7a28e3265b37a6474929f336521b332c1681b933f6cb9f3376673440d862a610d8d6117dc565b611228565b610dd1576040517f08c379a0000000000000000000000000000000000000000000000000000000008152600401610dc8906147aa565b60405180910390fd5b610dd9611ece565b565b610df683838360405180602001604052806000815250611374565b505050565b610e0c610e066117dc565b82611a8f565b610e4b576040517f08c379a0000000000000000000000000000000000000000000000000000000008152600401610e429061484a565b60405180910390fd5b610e5481611f70565b50565b6000610e61610993565b8210610ea2576040517f08c379a0000000000000000000000000000000000000000000000000000000008152600401610e999061482a565b60405180910390fd5b600a8281548110610edc577f4e487b7100000000000000000000000000000000000000000000000000000000600052603260045260246000fd5b90600052602060002001549050919050565b6000600c60009054906101000a900460ff16905090565b60606000610f12836110b1565b905060008167ffffffffffffffff811115610f56577f4e487b7100000000000000000000000000000000000000000000000000000000600052604160045260246000fd5b604051908082528060200260200182016040528015610f845781602001602082028036833780820191505090505b50905060005b82811015610ff457610f9c8582610b94565b828281518110610fd5577f4e487b7100000000000000000000000000000000000000000000000000000000600052603260045260246000fd5b6020026020010181815250508080610fec90614bc7565b915050610f8a565b508092505050919050565b6000806004600084815260200190815260200160002060009054906101000a900473ffffffffffffffffffffffffffffffffffffffff169050600073ffffffffffffffffffffffffffffffffffffffff168173ffffffffffffffffffffffffffffffffffffffff1614156110a8576040517f08c379a000000000000000000000000000000000000000000000000000000000815260040161109f9061472a565b60405180910390fd5b80915050919050565b60008073ffffffffffffffffffffffffffffffffffffffff168273ffffffffffffffffffffffffffffffffffffffff161415611122576040517f08c379a0000000000000000000000000000000000000000000000000000000008152600401611119906146ea565b60405180910390fd5b600560008373ffffffffffffffffffffffffffffffffffffffff1673ffffffffffffffffffffffffffffffffffffffff168152602001908152602001600020549050919050565b61119a7f65d7a28e3265b37a6474929f336521b332c1681b933f6cb9f3376673440d862a6111956117dc565b611228565b6111d9576040517f08c379a00000000000000000000000000000000000000000000000000000000081526004016111d0906145aa565b60405180910390fd5b6111e1612081565b565b6000806111f0600e6118b3565b90508091505090565b6000611220826001600086815260200190815260200160002061212490919063ffffffff16565b905092915050565b600080600084815260200190815260200160002060000160008373ffffffffffffffffffffffffffffffffffffffff1673ffffffffffffffffffffffffffffffffffffffff16815260200190815260200160002060009054906101000a900460ff16905092915050565b6060600380546112a190614b95565b80601f01602080910402602001604051908101604052809291908181526020018280546112cd90614b95565b801561131a5780601f106112ef5761010080835404028352916020019161131a565b820191906000526020600020905b8154815290600101906020018083116112fd57829003601f168201915b5050505050905090565b6000801b81565b61133d6113366117dc565b838361213e565b5050565b600061136d7f9f2df0fed2c77648de5860a4cc508cd0818c85b8b8a1ab4ceeef8d981c8956a683611228565b9050919050565b61138561137f6117dc565b83611a8f565b6113c4576040517f08c379a00000000000000000000000000000000000000000000000000000000081526004016113bb9061480a565b60405180910390fd5b6113d0848484846122ab565b50505050565b60606113e182611770565b611420576040517f08c379a00000000000000000000000000000000000000000000000000000000081526004016114179061470a565b60405180910390fd5b6040518060400160405280601c81526020017f68747470733a2f2f697066732e6570686572652e696f2f697066732f00000000815250600d600084815260200190815260200160002060405160200161147a92919061440b565b6040516020818303038152906040529050919050565b60006114ad60016000848152602001908152602001600020612307565b9050919050565b7f9f2df0fed2c77648de5860a4cc508cd0818c85b8b8a1ab4ceeef8d981c8956a681565b6114e182610b4c565b6114f2816114ed6117dc565b611dc9565b6114fc8383611e9a565b505050565b7f65d7a28e3265b37a6474929f336521b332c1681b933f6cb9f3376673440d862a81565b6000600760008473ffffffffffffffffffffffffffffffffffffffff1673ffffffffffffffffffffffffffffffffffffffff16815260200190815260200160002060008373ffffffffffffffffffffffffffffffffffffffff1673ffffffffffffffffffffffffffffffffffffffff16815260200190815260200160002060009054906101000a900460ff16905092915050565b6115e37f9f2df0fed2c77648de5860a4cc508cd0818c85b8b8a1ab4ceeef8d981c8956a68261231c565b50565b6115f08282611228565b6116c257600160008084815260200190815260200160002060000160008373ffffffffffffffffffffffffffffffffffffffff1673ffffffffffffffffffffffffffffffffffffffff16815260200190815260200160002060006101000a81548160ff0219169083151502179055506116676117dc565b73ffffffffffffffffffffffffffffffffffffffff168173ffffffffffffffffffffffffffffffffffffffff16837f2f8788117e7eff1d82e926ec794901d17c78024a50270940304540a733656f0d60405160405180910390a45b5050565b60006116ee836000018373ffffffffffffffffffffffffffffffffffffffff1660001b61232a565b905092915050565b60007f780e9d63000000000000000000000000000000000000000000000000000000007bffffffffffffffffffffffffffffffffffffffffffffffffffffffff1916827bffffffffffffffffffffffffffffffffffffffffffffffffffffffff1916148061176957506117688261239a565b5b9050919050565b60008073ffffffffffffffffffffffffffffffffffffffff166004600084815260200190815260200160002060009054906101000a900473ffffffffffffffffffffffffffffffffffffffff1673ffffffffffffffffffffffffffffffffffffffff1614159050919050565b600033905090565b816006600083815260200190815260200160002060006101000a81548173ffffffffffffffffffffffffffffffffffffffff021916908373ffffffffffffffffffffffffffffffffffffffff160217905550808273ffffffffffffffffffffffffffffffffffffffff1661185783610fff565b73ffffffffffffffffffffffffffffffffffffffff167f8c5be1e5ebec7d5bd14f71427d1e84f3dd0314c0f7b2291e5b200ac8c7c3b92560405160405180910390a45050565b6001816000016000828254019250508190555050565b600081600001549050919050565b600073ffffffffffffffffffffffffffffffffffffffff168273ffffffffffffffffffffffffffffffffffffffff161415611931576040517f08c379a00000000000000000000000000000000000000000000000000000000081526004016119289061476a565b60405180910390fd5b61193a81611770565b1561197a576040517f08c379a00000000000000000000000000000000000000000000000000000000081526004016119719061462a565b60405180910390fd5b6119866000838361247c565b6001600560008473ffffffffffffffffffffffffffffffffffffffff1673ffffffffffffffffffffffffffffffffffffffff16815260200190815260200160002060008282546119d691906149c7565b92505081905550816004600083815260200190815260200160002060006101000a81548173ffffffffffffffffffffffffffffffffffffffff021916908373ffffffffffffffffffffffffffffffffffffffff160217905550808273ffffffffffffffffffffffffffffffffffffffff16600073ffffffffffffffffffffffffffffffffffffffff167fddf252ad1be2c89b69c2b068fc378daa952ba7f163c4a11628f55a4df523b3ef60405160405180910390a45050565b6000611a9a82611770565b611ad9576040517f08c379a0000000000000000000000000000000000000000000000000000000008152600401611ad09061468a565b60405180910390fd5b6000611ae483610fff565b90508073ffffffffffffffffffffffffffffffffffffffff168473ffffffffffffffffffffffffffffffffffffffff161480611b5357508373ffffffffffffffffffffffffffffffffffffffff16611b3b846107f6565b73ffffffffffffffffffffffffffffffffffffffff16145b80611b645750611b638185611525565b5b91505092915050565b8273ffffffffffffffffffffffffffffffffffffffff16611b8d82610fff565b73ffffffffffffffffffffffffffffffffffffffff1614611be3576040517f08c379a0000000000000000000000000000000000000000000000000000000008152600401611bda906147ca565b60405180910390fd5b600073ffffffffffffffffffffffffffffffffffffffff168273ffffffffffffffffffffffffffffffffffffffff161415611c53576040517f08c379a0000000000000000000000000000000000000000000000000000000008152600401611c4a9061464a565b60405180910390fd5b611c5e83838361247c565b611c696000826117e4565b6001600560008573ffffffffffffffffffffffffffffffffffffffff1673ffffffffffffffffffffffffffffffffffffffff1681526020019081526020016000206000828254611cb99190614a77565b925050819055506001600560008473ffffffffffffffffffffffffffffffffffffffff1673ffffffffffffffffffffffffffffffffffffffff1681526020019081526020016000206000828254611d1091906149c7565b92505081905550816004600083815260200190815260200160002060006101000a81548173ffffffffffffffffffffffffffffffffffffffff021916908373ffffffffffffffffffffffffffffffffffffffff160217905550808273ffffffffffffffffffffffffffffffffffffffff168473ffffffffffffffffffffffffffffffffffffffff167fddf252ad1be2c89b69c2b068fc378daa952ba7f163c4a11628f55a4df523b3ef60405160405180910390a4505050565b611dd38282611228565b611e6257611df88173ffffffffffffffffffffffffffffffffffffffff1660146124e1565b611e068360001c60206124e1565b604051602001611e1792919061442f565b6040516020818303038152906040526040517f08c379a0000000000000000000000000000000000000000000000000000000008152600401611e599190614528565b60405180910390fd5b5050565b611e7082826115e6565b611e9581600160008581526020019081526020016000206116c690919063ffffffff16565b505050565b611ea482826127db565b611ec981600160008581526020019081526020016000206128bc90919063ffffffff16565b505050565b611ed6610eee565b611f15576040517f08c379a0000000000000000000000000000000000000000000000000000000008152600401611f0c9061458a565b60405180910390fd5b6000600c60006101000a81548160ff0219169083151502179055507f5db9ee0a495bf2e6ff9c91a7834c1ba4fdd244a5e8aa4e537bd38aeae4b073aa611f596117dc565b604051611f669190614469565b60405180910390a1565b6000611f7b82610fff565b9050611f898160008461247c565b611f946000836117e4565b6001600560008373ffffffffffffffffffffffffffffffffffffffff1673ffffffffffffffffffffffffffffffffffffffff1681526020019081526020016000206000828254611fe49190614a77565b925050819055506004600083815260200190815260200160002060006101000a81549073ffffffffffffffffffffffffffffffffffffffff021916905581600073ffffffffffffffffffffffffffffffffffffffff168273ffffffffffffffffffffffffffffffffffffffff167fddf252ad1be2c89b69c2b068fc378daa952ba7f163c4a11628f55a4df523b3ef60405160405180910390a45050565b612089610eee565b156120c9576040517f08c379a00000000000000000000000000000000000000000000000000000000081526004016120c0906146aa565b60405180910390fd5b6001600c60006101000a81548160ff0219169083151502179055507f62e78cea01bee320cd4e420270b5ea74000d11b0c9f74754ebdbfc544b05a25861210d6117dc565b60405161211a9190614469565b60405180910390a1565b600061213383600001836128ec565b60001c905092915050565b8173ffffffffffffffffffffffffffffffffffffffff168373ffffffffffffffffffffffffffffffffffffffff1614156121ad576040517f08c379a00000000000000000000000000000000000000000000000000000000081526004016121a49061466a565b60405180910390fd5b80600760008573ffffffffffffffffffffffffffffffffffffffff1673ffffffffffffffffffffffffffffffffffffffff16815260200190815260200160002060008473ffffffffffffffffffffffffffffffffffffffff1673ffffffffffffffffffffffffffffffffffffffff16815260200190815260200160002060006101000a81548160ff0219169083151502179055508173ffffffffffffffffffffffffffffffffffffffff168373ffffffffffffffffffffffffffffffffffffffff167f17307eab39ab6107e8899845ad3d59bd9653f200f220920489ca2b5937696c318360405161229e91906144f2565b60405180910390a3505050565b6122b6848484611b6d565b6122c28484848461293d565b612301576040517f08c379a00000000000000000000000000000000000000000000000000000000081526004016122f8906145ea565b60405180910390fd5b50505050565b600061231582600001612ad4565b9050919050565b6123268282611e66565b5050565b60006123368383612ae5565b61238f578260000182908060018154018082558091505060019003906000526020600020016000909190919091505582600001805490508360010160008481526020019081526020016000208190555060019050612394565b600090505b92915050565b60007f80ac58cd000000000000000000000000000000000000000000000000000000007bffffffffffffffffffffffffffffffffffffffffffffffffffffffff1916827bffffffffffffffffffffffffffffffffffffffffffffffffffffffff1916148061246557507f5b5e139f000000000000000000000000000000000000000000000000000000007bffffffffffffffffffffffffffffffffffffffffffffffffffffffff1916827bffffffffffffffffffffffffffffffffffffffffffffffffffffffff1916145b80612475575061247482612b08565b5b9050919050565b612487838383612b82565b600073ffffffffffffffffffffffffffffffffffffffff168273ffffffffffffffffffffffffffffffffffffffff1614156124dc57600d600082815260200190815260200160002060006124db919061336e565b5b505050565b6060600060028360026124f49190614a1d565b6124fe91906149c7565b67ffffffffffffffff81111561253d577f4e487b7100000000000000000000000000000000000000000000000000000000600052604160045260246000fd5b6040519080825280601f01601f19166020018201604052801561256f5781602001600182028036833780820191505090505b5090507f3000000000000000000000000000000000000000000000000000000000000000816000815181106125cd577f4e487b7100000000000000000000000000000000000000000000000000000000600052603260045260246000fd5b60200101907effffffffffffffffffffffffffffffffffffffffffffffffffffffffffffff1916908160001a9053507f780000000000000000000000000000000000000000000000000000000000000081600181518110612657577f4e487b7100000000000000000000000000000000000000000000000000000000600052603260045260246000fd5b60200101907effffffffffffffffffffffffffffffffffffffffffffffffffffffffffffff1916908160001a905350600060018460026126979190614a1d565b6126a191906149c7565b90505b600181111561278d577f3031323334353637383961626364656600000000000000000000000000000000600f861660108110612709577f4e487b7100000000000000000000000000000000000000000000000000000000600052603260045260246000fd5b1a60f81b828281518110612746577f4e487b7100000000000000000000000000000000000000000000000000000000600052603260045260246000fd5b60200101907effffffffffffffffffffffffffffffffffffffffffffffffffffffffffffff1916908160001a905350600485901c94508061278690614b6b565b90506126a4565b50600084146127d1576040517f08c379a00000000000000000000000000000000000000000000000000000000081526004016127c89061454a565b60405180910390fd5b8091505092915050565b6127e58282611228565b156128b857600080600084815260200190815260200160002060000160008373ffffffffffffffffffffffffffffffffffffffff1673ffffffffffffffffffffffffffffffffffffffff16815260200190815260200160002060006101000a81548160ff02191690831515021790555061285d6117dc565b73ffffffffffffffffffffffffffffffffffffffff168173ffffffffffffffffffffffffffffffffffffffff16837ff6391f5c32d9c69d2a47ea670b442974b53935d1edc7fd64eb21e047a839171b60405160405180910390a45b5050565b60006128e4836000018373ffffffffffffffffffffffffffffffffffffffff1660001b612bda565b905092915050565b600082600001828154811061292a577f4e487b7100000000000000000000000000000000000000000000000000000000600052603260045260246000fd5b9060005260206000200154905092915050565b600061295e8473ffffffffffffffffffffffffffffffffffffffff16612d60565b15612ac7578373ffffffffffffffffffffffffffffffffffffffff1663150b7a026129876117dc565b8786866040518563ffffffff1660e01b81526004016129a99493929190614484565b602060405180830381600087803b1580156129c357600080fd5b505af19250505080156129f457506040513d601f19601f820116820180604052508101906129f1919061378a565b60015b612a77573d8060008114612a24576040519150601f19603f3d011682016040523d82523d6000602084013e612a29565b606091505b50600081511415612a6f576040517f08c379a0000000000000000000000000000000000000000000000000000000008152600401612a66906145ea565b60405180910390fd5b805181602001fd5b63150b7a0260e01b7bffffffffffffffffffffffffffffffffffffffffffffffffffffffff1916817bffffffffffffffffffffffffffffffffffffffffffffffffffffffff191614915050612acc565b600190505b949350505050565b600081600001805490509050919050565b600080836001016000848152602001908152602001600020541415905092915050565b60007f5a05180f000000000000000000000000000000000000000000000000000000007bffffffffffffffffffffffffffffffffffffffffffffffffffffffff1916827bffffffffffffffffffffffffffffffffffffffffffffffffffffffff19161480612b7b5750612b7a82612d73565b5b9050919050565b612b8d838383612ded565b612b95610eee565b15612bd5576040517f08c379a0000000000000000000000000000000000000000000000000000000008152600401612bcc9061456a565b60405180910390fd5b505050565b60008083600101600084815260200190815260200160002054905060008114612d54576000600182612c0c9190614a77565b9050600060018660000180549050612c249190614a77565b9050818114612cdf576000866000018281548110612c6b577f4e487b7100000000000000000000000000000000000000000000000000000000600052603260045260246000fd5b9060005260206000200154905080876000018481548110612cb5577f4e487b7100000000000000000000000000000000000000000000000000000000600052603260045260246000fd5b90600052602060002001819055508387600101600083815260200190815260200160002081905550505b85600001805480612d19577f4e487b7100000000000000000000000000000000000000000000000000000000600052603160045260246000fd5b600190038181906000526020600020016000905590558560010160008681526020019081526020016000206000905560019350505050612d5a565b60009150505b92915050565b600080823b905060008111915050919050565b60007f7965db0b000000000000000000000000000000000000000000000000000000007bffffffffffffffffffffffffffffffffffffffffffffffffffffffff1916827bffffffffffffffffffffffffffffffffffffffffffffffffffffffff19161480612de65750612de582612f01565b5b9050919050565b612df8838383612f6b565b600073ffffffffffffffffffffffffffffffffffffffff168373ffffffffffffffffffffffffffffffffffffffff161415612e3b57612e3681612f70565b612e7a565b8173ffffffffffffffffffffffffffffffffffffffff168373ffffffffffffffffffffffffffffffffffffffff1614612e7957612e788382612fb9565b5b5b600073ffffffffffffffffffffffffffffffffffffffff168273ffffffffffffffffffffffffffffffffffffffff161415612ebd57612eb881613126565b612efc565b8273ffffffffffffffffffffffffffffffffffffffff168273ffffffffffffffffffffffffffffffffffffffff1614612efb57612efa8282613269565b5b5b505050565b60007f01ffc9a7000000000000000000000000000000000000000000000000000000007bffffffffffffffffffffffffffffffffffffffffffffffffffffffff1916827bffffffffffffffffffffffffffffffffffffffffffffffffffffffff1916149050919050565b505050565b600a80549050600b600083815260200190815260200160002081905550600a81908060018154018082558091505060019003906000526020600020016000909190919091505550565b60006001612fc6846110b1565b612fd09190614a77565b90506000600960008481526020019081526020016000205490508181146130b5576000600860008673ffffffffffffffffffffffffffffffffffffffff1673ffffffffffffffffffffffffffffffffffffffff168152602001908152602001600020600084815260200190815260200160002054905080600860008773ffffffffffffffffffffffffffffffffffffffff1673ffffffffffffffffffffffffffffffffffffffff168152602001908152602001600020600084815260200190815260200160002081905550816009600083815260200190815260200160002081905550505b6009600084815260200190815260200160002060009055600860008573ffffffffffffffffffffffffffffffffffffffff1673ffffffffffffffffffffffffffffffffffffffff16815260200190815260200160002060008381526020019081526020016000206000905550505050565b60006001600a8054905061313a9190614a77565b90506000600b60008481526020019081526020016000205490506000600a8381548110613190577f4e487b7100000000000000000000000000000000000000000000000000000000600052603260045260246000fd5b9060005260206000200154905080600a83815481106131d8577f4e487b7100000000000000000000000000000000000000000000000000000000600052603260045260246000fd5b906000526020600020018190555081600b600083815260200190815260200160002081905550600b600085815260200190815260200160002060009055600a80548061324d577f4e487b7100000000000000000000000000000000000000000000000000000000600052603160045260246000fd5b6001900381819060005260206000200160009055905550505050565b6000613274836110b1565b905081600860008573ffffffffffffffffffffffffffffffffffffffff1673ffffffffffffffffffffffffffffffffffffffff168152602001908152602001600020600083815260200190815260200160002081905550806009600084815260200190815260200160002081905550505050565b8280546132f490614b95565b90600052602060002090601f016020900481019282613316576000855561335d565b82601f1061332f57805160ff191683800117855561335d565b8280016001018555821561335d579182015b8281111561335c578251825591602001919060010190613341565b5b50905061336a91906133ae565b5090565b50805461337a90614b95565b6000825580601f1061338c57506133ab565b601f0160209004906000526020600020908101906133aa91906133ae565b5b50565b5b808211156133c75760008160009055506001016133af565b5090565b60006133de6133d9846148d6565b6148a5565b9050828152602081018484840111156133f657600080fd5b613401848285614b29565b509392505050565b600061341c61341784614906565b6148a5565b90508281526020810184848401111561343457600080fd5b61343f848285614b29565b509392505050565b60008135905061345681614cae565b92915050565b60008135905061346b81614cc5565b92915050565b60008135905061348081614cdc565b92915050565b60008135905061349581614cf3565b92915050565b6000815190506134aa81614cf3565b92915050565b600082601f8301126134c157600080fd5b81356134d18482602086016133cb565b91505092915050565b600082601f8301126134eb57600080fd5b81356134fb848260208601613409565b91505092915050565b60008135905061351381614d0a565b92915050565b60006020828403121561352b57600080fd5b600061353984828501613447565b91505092915050565b6000806040838503121561355557600080fd5b600061356385828601613447565b925050602061357485828601613447565b9150509250929050565b60008060006060848603121561359357600080fd5b60006135a186828701613447565b93505060206135b286828701613447565b92505060406135c386828701613504565b9150509250925092565b600080600080608085870312156135e357600080fd5b60006135f187828801613447565b945050602061360287828801613447565b935050604061361387828801613504565b925050606085013567ffffffffffffffff81111561363057600080fd5b61363c878288016134b0565b91505092959194509250565b6000806040838503121561365b57600080fd5b600061366985828601613447565b925050602061367a8582860161345c565b9150509250929050565b6000806040838503121561369757600080fd5b60006136a585828601613447565b92505060206136b685828601613504565b9150509250929050565b6000602082840312156136d257600080fd5b60006136e084828501613471565b91505092915050565b600080604083850312156136fc57600080fd5b600061370a85828601613471565b925050602061371b85828601613447565b9150509250929050565b6000806040838503121561373857600080fd5b600061374685828601613471565b925050602061375785828601613504565b9150509250929050565b60006020828403121561377357600080fd5b600061378184828501613486565b91505092915050565b60006020828403121561379c57600080fd5b60006137aa8482850161349b565b91505092915050565b600080604083850312156137c657600080fd5b600083013567ffffffffffffffff8111156137e057600080fd5b6137ec858286016134da565b92505060206137fd85828601613447565b9150509250929050565b60006020828403121561381957600080fd5b600061382784828501613504565b91505092915050565b600061383c83836143ed565b60208301905092915050565b61385181614aab565b82525050565b60006138628261495b565b61386c8185614989565b935061387783614936565b8060005b838110156138a857815161388f8882613830565b975061389a8361497c565b92505060018101905061387b565b5085935050505092915050565b6138be81614abd565b82525050565b6138cd81614ac9565b82525050565b60006138de82614966565b6138e8818561499a565b93506138f8818560208601614b38565b61390181614c9d565b840191505092915050565b600061391782614971565b61392181856149ab565b9350613931818560208601614b38565b61393a81614c9d565b840191505092915050565b600061395082614971565b61395a81856149bc565b935061396a818560208601614b38565b80840191505092915050565b6000815461398381614b95565b61398d81866149bc565b945060018216600081146139a857600181146139b9576139ec565b60ff198316865281860193506139ec565b6139c285614946565b60005b838110156139e4578154818901526001820191506020810190506139c5565b838801955050505b50505092915050565b6000613a026020836149ab565b91507f537472696e67733a20686578206c656e67746820696e73756666696369656e746000830152602082019050919050565b6000613a42602b836149ab565b91507f4552433732315061757361626c653a20746f6b656e207472616e73666572207760008301527f68696c65207061757365640000000000000000000000000000000000000000006020830152604082019050919050565b6000613aa86014836149ab565b91507f5061757361626c653a206e6f74207061757365640000000000000000000000006000830152602082019050919050565b6000613ae86036836149ab565b91507f457068657265466f6f7462616c6c65724552433732313a206d7573742068617660008301527f652070617573657220726f6c6520746f207061757365000000000000000000006020830152604082019050919050565b6000613b4e602b836149ab565b91507f455243373231456e756d657261626c653a206f776e657220696e646578206f7560008301527f74206f6620626f756e64730000000000000000000000000000000000000000006020830152604082019050919050565b6000613bb46032836149ab565b91507f4552433732313a207472616e7366657220746f206e6f6e20455243373231526560008301527f63656976657220696d706c656d656e74657200000000000000000000000000006020830152604082019050919050565b6000613c1a6035836149ab565b91507f457068657265466f6f7462616c6c65724552433732313a206d7573742068617660008301527f65206d696e74657220726f6c6520746f206d696e7400000000000000000000006020830152604082019050919050565b6000613c80601c836149ab565b91507f4552433732313a20746f6b656e20616c7265616479206d696e746564000000006000830152602082019050919050565b6000613cc06024836149ab565b91507f4552433732313a207472616e7366657220746f20746865207a65726f2061646460008301527f72657373000000000000000000000000000000000000000000000000000000006020830152604082019050919050565b6000613d266019836149ab565b91507f4552433732313a20617070726f766520746f2063616c6c6572000000000000006000830152602082019050919050565b6000613d66602c836149ab565b91507f4552433732313a206f70657261746f7220717565727920666f72206e6f6e657860008301527f697374656e7420746f6b656e00000000000000000000000000000000000000006020830152604082019050919050565b6000613dcc6010836149ab565b91507f5061757361626c653a20706175736564000000000000000000000000000000006000830152602082019050919050565b6000613e0c6038836149ab565b91507f4552433732313a20617070726f76652063616c6c6572206973206e6f74206f7760008301527f6e6572206e6f7220617070726f76656420666f7220616c6c00000000000000006020830152604082019050919050565b6000613e72602a836149ab565b91507f4552433732313a2062616c616e636520717565727920666f7220746865207a6560008301527f726f2061646472657373000000000000000000000000000000000000000000006020830152604082019050919050565b6000613ed86037836149ab565b91507f457068657265466f6f7462616c6c65724552433732313a20555249207175657260008301527f7920666f72206e6f6e6578697374656e7420746f6b656e0000000000000000006020830152604082019050919050565b6000613f3e6029836149ab565b91507f4552433732313a206f776e657220717565727920666f72206e6f6e657869737460008301527f656e7420746f6b656e00000000000000000000000000000000000000000000006020830152604082019050919050565b6000613fa46036836149ab565b91507f457068657265466f6f7462616c6c65724552433732313a2063616e6e6f74206560008301527f7863656564206d617820746f74616c20737570706c79000000000000000000006020830152604082019050919050565b600061400a6020836149ab565b91507f4552433732313a206d696e7420746f20746865207a65726f20616464726573736000830152602082019050919050565b600061404a602c836149ab565b91507f4552433732313a20617070726f76656420717565727920666f72206e6f6e657860008301527f697374656e7420746f6b656e00000000000000000000000000000000000000006020830152604082019050919050565b60006140b06038836149ab565b91507f457068657265466f6f7462616c6c65724552433732313a206d7573742068617660008301527f652070617573657220726f6c6520746f20756e706175736500000000000000006020830152604082019050919050565b60006141166029836149ab565b91507f4552433732313a207472616e73666572206f6620746f6b656e2074686174206960008301527f73206e6f74206f776e00000000000000000000000000000000000000000000006020830152604082019050919050565b600061417c6021836149ab565b91507f4552433732313a20617070726f76616c20746f2063757272656e74206f776e6560008301527f72000000000000000000000000000000000000000000000000000000000000006020830152604082019050919050565b60006141e26031836149ab565b91507f4552433732313a207472616e736665722063616c6c6572206973206e6f74206f60008301527f776e6572206e6f7220617070726f7665640000000000000000000000000000006020830152604082019050919050565b6000614248602c836149ab565b91507f455243373231456e756d657261626c653a20676c6f62616c20696e646578206f60008301527f7574206f6620626f756e647300000000000000000000000000000000000000006020830152604082019050919050565b60006142ae6017836149bc565b91507f416363657373436f6e74726f6c3a206163636f756e74200000000000000000006000830152601782019050919050565b60006142ee6030836149ab565b91507f4552433732314275726e61626c653a2063616c6c6572206973206e6f74206f7760008301527f6e6572206e6f7220617070726f766564000000000000000000000000000000006020830152604082019050919050565b60006143546011836149bc565b91507f206973206d697373696e6720726f6c65200000000000000000000000000000006000830152601182019050919050565b6000614394602f836149ab565b91507f416363657373436f6e74726f6c3a2063616e206f6e6c792072656e6f756e636560008301527f20726f6c657320666f722073656c6600000000000000000000000000000000006020830152604082019050919050565b6143f681614b1f565b82525050565b61440581614b1f565b82525050565b60006144178285613945565b91506144238284613976565b91508190509392505050565b600061443a826142a1565b91506144468285613945565b915061445182614347565b915061445d8284613945565b91508190509392505050565b600060208201905061447e6000830184613848565b92915050565b60006080820190506144996000830187613848565b6144a66020830186613848565b6144b360408301856143fc565b81810360608301526144c581846138d3565b905095945050505050565b600060208201905081810360008301526144ea8184613857565b905092915050565b600060208201905061450760008301846138b5565b92915050565b600060208201905061452260008301846138c4565b92915050565b60006020820190508181036000830152614542818461390c565b905092915050565b60006020820190508181036000830152614563816139f5565b9050919050565b6000602082019050818103600083015261458381613a35565b9050919050565b600060208201905081810360008301526145a381613a9b565b9050919050565b600060208201905081810360008301526145c381613adb565b9050919050565b600060208201905081810360008301526145e381613b41565b9050919050565b6000602082019050818103600083015261460381613ba7565b9050919050565b6000602082019050818103600083015261462381613c0d565b9050919050565b6000602082019050818103600083015261464381613c73565b9050919050565b6000602082019050818103600083015261466381613cb3565b9050919050565b6000602082019050818103600083015261468381613d19565b9050919050565b600060208201905081810360008301526146a381613d59565b9050919050565b600060208201905081810360008301526146c381613dbf565b9050919050565b600060208201905081810360008301526146e381613dff565b9050919050565b6000602082019050818103600083015261470381613e65565b9050919050565b6000602082019050818103600083015261472381613ecb565b9050919050565b6000602082019050818103600083015261474381613f31565b9050919050565b6000602082019050818103600083015261476381613f97565b9050919050565b6000602082019050818103600083015261478381613ffd565b9050919050565b600060208201905081810360008301526147a38161403d565b9050919050565b600060208201905081810360008301526147c3816140a3565b9050919050565b600060208201905081810360008301526147e381614109565b9050919050565b600060208201905081810360008301526148038161416f565b9050919050565b60006020820190508181036000830152614823816141d5565b9050919050565b600060208201905081810360008301526148438161423b565b9050919050565b60006020820190508181036000830152614863816142e1565b9050919050565b6000602082019050818103600083015261488381614387565b9050919050565b600060208201905061489f60008301846143fc565b92915050565b6000604051905081810181811067ffffffffffffffff821117156148cc576148cb614c6e565b5b8060405250919050565b600067ffffffffffffffff8211156148f1576148f0614c6e565b5b601f19601f8301169050602081019050919050565b600067ffffffffffffffff82111561492157614920614c6e565b5b601f19601f8301169050602081019050919050565b6000819050602082019050919050565b60008190508160005260206000209050919050565b600081519050919050565b600081519050919050565b600081519050919050565b6000602082019050919050565b600082825260208201905092915050565b600082825260208201905092915050565b600082825260208201905092915050565b600081905092915050565b60006149d282614b1f565b91506149dd83614b1f565b9250827fffffffffffffffffffffffffffffffffffffffffffffffffffffffffffffffff03821115614a1257614a11614c10565b5b828201905092915050565b6000614a2882614b1f565b9150614a3383614b1f565b9250817fffffffffffffffffffffffffffffffffffffffffffffffffffffffffffffffff0483118215151615614a6c57614a6b614c10565b5b828202905092915050565b6000614a8282614b1f565b9150614a8d83614b1f565b925082821015614aa057614a9f614c10565b5b828203905092915050565b6000614ab682614aff565b9050919050565b60008115159050919050565b6000819050919050565b60007fffffffff0000000000000000000000000000000000000000000000000000000082169050919050565b600073ffffffffffffffffffffffffffffffffffffffff82169050919050565b6000819050919050565b82818337600083830152505050565b60005b83811015614b56578082015181840152602081019050614b3b565b83811115614b65576000848401525b50505050565b6000614b7682614b1f565b91506000821415614b8a57614b89614c10565b5b600182039050919050565b60006002820490506001821680614bad57607f821691505b60208210811415614bc157614bc0614c3f565b5b50919050565b6000614bd282614b1f565b91507fffffffffffffffffffffffffffffffffffffffffffffffffffffffffffffffff821415614c0557614c04614c10565b5b600182019050919050565b7f4e487b7100000000000000000000000000000000000000000000000000000000600052601160045260246000fd5b7f4e487b7100000000000000000000000000000000000000000000000000000000600052602260045260246000fd5b7f4e487b7100000000000000000000000000000000000000000000000000000000600052604160045260246000fd5b6000601f19601f8301169050919050565b614cb781614aab565b8114614cc257600080fd5b50565b614cce81614abd565b8114614cd957600080fd5b50565b614ce581614ac9565b8114614cf057600080fd5b50565b614cfc81614ad3565b8114614d0757600080fd5b50565b614d1381614b1f565b8114614d1e57600080fd5b5056fea26469706673582212209ba04b1005dd8f4569d17cae62ca1664f065110731bb937b50457109c311ec7664736f6c63430008000033",
  "linkReferences": {},
  "deployedLinkReferences": {}
}